{
  "contractName": "TaskContract",
  "abi": [
    {
      "inputs": [],
      "stateMutability": "nonpayable",
      "type": "constructor"
    },
    {
      "inputs": [],
      "name": "getLength",
      "outputs": [
        {
          "internalType": "uint256",
          "name": "",
          "type": "uint256"
        }
      ],
      "stateMutability": "view",
      "type": "function"
    },
    {
      "inputs": [
        {
          "internalType": "uint256",
          "name": "id",
          "type": "uint256"
        },
        {
          "internalType": "string",
          "name": "name",
          "type": "string"
        },
        {
          "internalType": "string",
          "name": "description",
          "type": "string"
        },
        {
          "internalType": "uint256",
          "name": "expire",
          "type": "uint256"
        }
      ],
      "name": "createTask",
      "outputs": [],
      "stateMutability": "nonpayable",
      "type": "function"
    },
    {
      "inputs": [
        {
          "internalType": "uint256",
          "name": "id",
          "type": "uint256"
        },
        {
          "internalType": "string",
          "name": "value",
          "type": "string"
        }
      ],
      "name": "updateName",
      "outputs": [],
      "stateMutability": "nonpayable",
      "type": "function"
    },
    {
      "inputs": [
        {
          "internalType": "uint256",
          "name": "id",
          "type": "uint256"
        },
        {
          "internalType": "string",
          "name": "value",
          "type": "string"
        }
      ],
      "name": "updateDescription",
      "outputs": [],
      "stateMutability": "nonpayable",
      "type": "function"
    },
    {
      "inputs": [
        {
          "internalType": "uint256",
          "name": "id",
          "type": "uint256"
        }
      ],
      "name": "deleteTask",
      "outputs": [],
      "stateMutability": "nonpayable",
      "type": "function"
    },
    {
      "inputs": [
        {
          "internalType": "uint256",
          "name": "id",
          "type": "uint256"
        }
      ],
      "name": "resetTask",
      "outputs": [],
      "stateMutability": "nonpayable",
      "type": "function"
    },
    {
      "inputs": [
        {
          "internalType": "uint256",
          "name": "id",
          "type": "uint256"
        }
      ],
      "name": "doneTask",
      "outputs": [],
      "stateMutability": "nonpayable",
      "type": "function"
    },
    {
      "inputs": [
        {
          "internalType": "uint256",
          "name": "id",
          "type": "uint256"
        },
        {
          "internalType": "uint256",
          "name": "timestamp",
          "type": "uint256"
        }
      ],
      "name": "updateExpire",
      "outputs": [],
      "stateMutability": "nonpayable",
      "type": "function"
    },
    {
      "inputs": [
        {
          "internalType": "uint256",
          "name": "id",
          "type": "uint256"
        }
      ],
      "name": "getTask",
      "outputs": [
        {
          "components": [
            {
              "internalType": "uint256",
              "name": "id",
              "type": "uint256"
            },
            {
              "internalType": "string",
              "name": "name",
              "type": "string"
            },
            {
              "internalType": "string",
              "name": "description",
              "type": "string"
            },
            {
              "internalType": "enum TaskContract.States",
              "name": "status",
              "type": "uint8"
            },
            {
              "internalType": "uint256",
              "name": "create",
              "type": "uint256"
            },
            {
              "internalType": "uint256",
              "name": "expire",
              "type": "uint256"
            }
          ],
          "internalType": "struct TaskContract.Task",
          "name": "",
          "type": "tuple"
        }
      ],
      "stateMutability": "view",
      "type": "function"
    },
    {
      "inputs": [
        {
          "internalType": "uint256",
          "name": "id",
          "type": "uint256"
        }
      ],
      "name": "getStatus",
      "outputs": [
        {
          "internalType": "uint8",
          "name": "",
          "type": "uint8"
        }
      ],
      "stateMutability": "view",
      "type": "function"
    },
    {
      "inputs": [
        {
          "internalType": "uint256",
          "name": "id",
          "type": "uint256"
        }
      ],
      "name": "getExpire",
      "outputs": [
        {
          "internalType": "uint256",
          "name": "",
          "type": "uint256"
        }
      ],
      "stateMutability": "view",
      "type": "function"
    }
  ],
  "bytecode": "0x60806040523480156200001157600080fd5b50620000466000604051806020016040528060008152506040518060200160405280600081525060006200004c60201b60201c565b620004d5565b600180016040518060c001604052808681526020018581526020018481526020016001600381111562000084576200008362000145565b5b8152602001428152602001838152509080600181540180825580915050600190039060005260206000209060060201600090919091909150600082015181600001556020820151816001019081620000dd9190620003ee565b506040820151816002019081620000f59190620003ee565b5060608201518160030160006101000a81548160ff0219169083600381111562000124576200012362000145565b5b02179055506080820151816004015560a08201518160050155505050505050565b7f4e487b7100000000000000000000000000000000000000000000000000000000600052602160045260246000fd5b600081519050919050565b7f4e487b7100000000000000000000000000000000000000000000000000000000600052604160045260246000fd5b7f4e487b7100000000000000000000000000000000000000000000000000000000600052602260045260246000fd5b60006002820490506001821680620001f657607f821691505b6020821081036200020c576200020b620001ae565b5b50919050565b60008190508160005260206000209050919050565b60006020601f8301049050919050565b600082821b905092915050565b600060088302620002767fffffffffffffffffffffffffffffffffffffffffffffffffffffffffffffffff8262000237565b62000282868362000237565b95508019841693508086168417925050509392505050565b6000819050919050565b6000819050919050565b6000620002cf620002c9620002c3846200029a565b620002a4565b6200029a565b9050919050565b6000819050919050565b620002eb83620002ae565b62000303620002fa82620002d6565b84845462000244565b825550505050565b600090565b6200031a6200030b565b62000327818484620002e0565b505050565b5b818110156200034f576200034360008262000310565b6001810190506200032d565b5050565b601f8211156200039e57620003688162000212565b620003738462000227565b8101602085101562000383578190505b6200039b620003928562000227565b8301826200032c565b50505b505050565b600082821c905092915050565b6000620003c360001984600802620003a3565b1980831691505092915050565b6000620003de8383620003b0565b9150826002028217905092915050565b620003f98262000174565b67ffffffffffffffff8111156200041557620004146200017f565b5b620004218254620001dd565b6200042e82828562000353565b600060209050601f83116001811462000466576000841562000451578287015190505b6200045d8582620003d0565b865550620004cd565b601f198416620004768662000212565b60005b82811015620004a05784890151825560018201915060208501945060208101905062000479565b86831015620004c05784890151620004bc601f891682620003b0565b8355505b6001600288020188555050505b505050505050565b6116d980620004e56000396000f3fe608060405234801561001057600080fd5b50600436106100a95760003560e01c80635e6f8337116100715780635e6f833714610162578063718ff2051461017e57806382c949211461019a57806395c78f82146101b6578063be1c766b146101e6578063c6f1532a14610204576100a9565b806314dee4b3146100ae5780631d65e77e146100ca57806353e76f2c146100fa578063560f3192146101165780635c622a0e14610132575b600080fd5b6100c860048036038101906100c39190610eee565b610220565b005b6100e460048036038101906100df9190610f4a565b610267565b6040516100f1919061110c565b60405180910390f35b610114600480360381019061010f9190610eee565b61083c565b005b610130600480360381019061012b9190610f4a565b610883565b005b61014c60048036038101906101479190610f4a565b610891565b604051610159919061114a565b60405180910390f35b61017c60048036038101906101779190610f4a565b61097e565b005b61019860048036038101906101939190611165565b61098c565b005b6101b460048036038101906101af91906111a5565b6109ca565b005b6101d060048036038101906101cb9190610f4a565b610ab9565b6040516101dd9190611253565b60405180910390f35b6101ee610af7565b6040516101fb9190611253565b60405180910390f35b61021e60048036038101906102199190610f4a565b610b06565b005b600061022b83610b14565b9050816001800182815481106102445761024361126e565b5b9060005260206000209060060201600201908161026191906114a9565b50505050565b61026f610d16565b6000600180018054905090506000805b82811015610684578460018001828154811061029e5761029d61126e565b5b9060005260206000209060060201600001540361046b576001800181815481106102cb576102ca61126e565b5b90600052602060002090600602016040518060c0016040529081600082015481526020016001820180546102fe906112cc565b80601f016020809104026020016040519081016040528092919081815260200182805461032a906112cc565b80156103775780601f1061034c57610100808354040283529160200191610377565b820191906000526020600020905b81548152906001019060200180831161035a57829003601f168201915b50505050508152602001600282018054610390906112cc565b80601f01602080910402602001604051908101604052809291908181526020018280546103bc906112cc565b80156104095780601f106103de57610100808354040283529160200191610409565b820191906000526020600020905b8154815290600101906020018083116103ec57829003601f168201915b505050505081526020016003820160009054906101000a900460ff16600381111561043757610436611005565b5b600381111561044957610448611005565b5b8152602001600482015481526020016005820154815250509350505050610837565b6001818461047991906115aa565b61048391906115aa565b91508082111561068457846001800183815481106104a4576104a361126e565b5b90600052602060002090600602016000015403610671576001800181815481106104d1576104d061126e565b5b90600052602060002090600602016040518060c001604052908160008201548152602001600182018054610504906112cc565b80601f0160208091040260200160405190810160405280929190818152602001828054610530906112cc565b801561057d5780601f106105525761010080835404028352916020019161057d565b820191906000526020600020905b81548152906001019060200180831161056057829003601f168201915b50505050508152602001600282018054610596906112cc565b80601f01602080910402602001604051908101604052809291908181526020018280546105c2906112cc565b801561060f5780601f106105e45761010080835404028352916020019161060f565b820191906000526020600020905b8154815290600101906020018083116105f257829003601f168201915b505050505081526020016003820160009054906101000a900460ff16600381111561063d5761063c611005565b5b600381111561064f5761064e611005565b5b8152602001600482015481526020016005820154815250509350505050610837565b808061067c906115de565b91505061027f565b506001800160008154811061069c5761069b61126e565b5b90600052602060002090600602016040518060c0016040529081600082015481526020016001820180546106cf906112cc565b80601f01602080910402602001604051908101604052809291908181526020018280546106fb906112cc565b80156107485780601f1061071d57610100808354040283529160200191610748565b820191906000526020600020905b81548152906001019060200180831161072b57829003601f168201915b50505050508152602001600282018054610761906112cc565b80601f016020809104026020016040519081016040528092919081815260200182805461078d906112cc565b80156107da5780601f106107af576101008083540402835291602001916107da565b820191906000526020600020905b8154815290600101906020018083116107bd57829003601f168201915b505050505081526020016003820160009054906101000a900460ff16600381111561080857610807611005565b5b600381111561081a57610819611005565b5b815260200160048201548152602001600582015481525050925050505b919050565b600061084783610b14565b9050816001800182815481106108605761085f61126e565b5b9060005260206000209060060201600101908161087d91906114a9565b50505050565b61088e816000610be1565b50565b60008061089d83610b14565b905060008060038111156108b4576108b3611005565b5b6001800183815481106108ca576108c961126e565b5b906000526020600020906006020160030160009054906101000a900460ff1660038111156108fb576108fa611005565b5b1461096f576001600381111561091457610913611005565b5b60018001838154811061092a5761092961126e565b5b906000526020600020906006020160030160009054906101000a900460ff16600381111561095b5761095a611005565b5b1461096757600261096a565b60015b610972565b60005b90508092505050919050565b610989816002610be1565b50565b600061099783610b14565b9050816001800182815481106109b0576109af61126e565b5b906000526020600020906006020160050181905550505050565b600180016040518060c00160405280868152602001858152602001848152602001600160038111156109ff576109fe611005565b5b8152602001428152602001838152509080600181540180825580915050600190039060005260206000209060060201600090919091909150600082015181600001556020820151816001019081610a5691906114a9565b506040820151816002019081610a6c91906114a9565b5060608201518160030160006101000a81548160ff02191690836003811115610a9857610a97611005565b5b02179055506080820151816004015560a08201518160050155505050505050565b600080610ac583610b14565b9050600180018181548110610add57610adc61126e565b5b906000526020600020906006020160050154915050919050565b60006001800180549050905090565b610b11816001610be1565b50565b600080600180018054905090506000805b82811015610bd45784600180018281548110610b4457610b4361126e565b5b90600052602060002090600602016000015403610b6657809350505050610bdc565b60018184610b7491906115aa565b610b7e91906115aa565b915080821115610bd45784600180018381548110610b9f57610b9e61126e565b5b90600052602060002090600602016000015403610bc157819350505050610bdc565b8080610bcc906115de565b915050610b25565b506000925050505b919050565b6000610bec83610b14565b905060008260ff1614610c265760018260ff1614610c1e5760028260ff1614610c16576003610c19565b60025b610c21565b60015b610c29565b60005b600180018281548110610c3f57610c3e61126e565b5b906000526020600020906006020160030160006101000a81548160ff02191690836003811115610c7257610c71611005565b5b0217905550600380811115610c8a57610c89611005565b5b600180018281548110610ca057610c9f61126e565b5b906000526020600020906006020160030160009054906101000a900460ff166003811115610cd157610cd0611005565b5b03610d11576040517f08c379a0000000000000000000000000000000000000000000000000000000008152600401610d0890611683565b60405180910390fd5b505050565b6040518060c0016040528060008152602001606081526020016060815260200160006003811115610d4a57610d49611005565b5b815260200160008152602001600081525090565b6000604051905090565b600080fd5b600080fd5b6000819050919050565b610d8581610d72565b8114610d9057600080fd5b50565b600081359050610da281610d7c565b92915050565b600080fd5b600080fd5b6000601f19601f8301169050919050565b7f4e487b7100000000000000000000000000000000000000000000000000000000600052604160045260246000fd5b610dfb82610db2565b810181811067ffffffffffffffff82111715610e1a57610e19610dc3565b5b80604052505050565b6000610e2d610d5e565b9050610e398282610df2565b919050565b600067ffffffffffffffff821115610e5957610e58610dc3565b5b610e6282610db2565b9050602081019050919050565b82818337600083830152505050565b6000610e91610e8c84610e3e565b610e23565b905082815260208101848484011115610ead57610eac610dad565b5b610eb8848285610e6f565b509392505050565b600082601f830112610ed557610ed4610da8565b5b8135610ee5848260208601610e7e565b91505092915050565b60008060408385031215610f0557610f04610d68565b5b6000610f1385828601610d93565b925050602083013567ffffffffffffffff811115610f3457610f33610d6d565b5b610f4085828601610ec0565b9150509250929050565b600060208284031215610f6057610f5f610d68565b5b6000610f6e84828501610d93565b91505092915050565b610f8081610d72565b82525050565b600081519050919050565b600082825260208201905092915050565b60005b83811015610fc0578082015181840152602081019050610fa5565b60008484015250505050565b6000610fd782610f86565b610fe18185610f91565b9350610ff1818560208601610fa2565b610ffa81610db2565b840191505092915050565b7f4e487b7100000000000000000000000000000000000000000000000000000000600052602160045260246000fd5b6004811061104557611044611005565b5b50565b600081905061105682611034565b919050565b600061106682611048565b9050919050565b6110768161105b565b82525050565b600060c0830160008301516110946000860182610f77565b50602083015184820360208601526110ac8282610fcc565b915050604083015184820360408601526110c68282610fcc565b91505060608301516110db606086018261106d565b5060808301516110ee6080860182610f77565b5060a083015161110160a0860182610f77565b508091505092915050565b60006020820190508181036000830152611126818461107c565b905092915050565b600060ff82169050919050565b6111448161112e565b82525050565b600060208201905061115f600083018461113b565b92915050565b6000806040838503121561117c5761117b610d68565b5b600061118a85828601610d93565b925050602061119b85828601610d93565b9150509250929050565b600080600080608085870312156111bf576111be610d68565b5b60006111cd87828801610d93565b945050602085013567ffffffffffffffff8111156111ee576111ed610d6d565b5b6111fa87828801610ec0565b935050604085013567ffffffffffffffff81111561121b5761121a610d6d565b5b61122787828801610ec0565b925050606061123887828801610d93565b91505092959194509250565b61124d81610d72565b82525050565b60006020820190506112686000830184611244565b92915050565b7f4e487b7100000000000000000000000000000000000000000000000000000000600052603260045260246000fd5b7f4e487b7100000000000000000000000000000000000000000000000000000000600052602260045260246000fd5b600060028204905060018216806112e457607f821691505b6020821081036112f7576112f661129d565b5b50919050565b60008190508160005260206000209050919050565b60006020601f8301049050919050565b600082821b905092915050565b60006008830261135f7fffffffffffffffffffffffffffffffffffffffffffffffffffffffffffffffff82611322565b6113698683611322565b95508019841693508086168417925050509392505050565b6000819050919050565b60006113a66113a161139c84610d72565b611381565b610d72565b9050919050565b6000819050919050565b6113c08361138b565b6113d46113cc826113ad565b84845461132f565b825550505050565b600090565b6113e96113dc565b6113f48184846113b7565b505050565b5b818110156114185761140d6000826113e1565b6001810190506113fa565b5050565b601f82111561145d5761142e816112fd565b61143784611312565b81016020851015611446578190505b61145a61145285611312565b8301826113f9565b50505b505050565b600082821c905092915050565b600061148060001984600802611462565b1980831691505092915050565b6000611499838361146f565b9150826002028217905092915050565b6114b282610f86565b67ffffffffffffffff8111156114cb576114ca610dc3565b5b6114d582546112cc565b6114e082828561141c565b600060209050601f8311600181146115135760008415611501578287015190505b61150b858261148d565b865550611573565b601f198416611521866112fd565b60005b8281101561154957848901518255600182019150602085019450602081019050611524565b868310156115665784890151611562601f89168261146f565b8355505b6001600288020188555050505b505050505050565b7f4e487b7100000000000000000000000000000000000000000000000000000000600052601160045260246000fd5b60006115b582610d72565b91506115c083610d72565b92508282039050818111156115d8576115d761157b565b5b92915050565b60006115e982610d72565b91507fffffffffffffffffffffffffffffffffffffffffffffffffffffffffffffffff820361161b5761161a61157b565b5b600182019050919050565b600082825260208201905092915050565b7f4552524f523a20496e646578206f757420626f756e6421000000000000000000600082015250565b600061166d601783611626565b915061167882611637565b602082019050919050565b6000602082019050818103600083015261169c81611660565b905091905056fea2646970667358221220717596a71b966d89be14f5e59904352aa5a862f908cb478e34f103555dcb9ef564736f6c63430008110033",
  "immutableReferences": {},
  "source": "// SPDX-License-Identifier: MIT\npragma solidity ^0.8.7;\n\ncontract TaskContract {\n    \n    enum States{ DELETE, INITIAL, DONE, ERROR } States status;\n    \n    struct Task {\n        uint256 id;\n        string name;\n        string description;\n        States status; // 0 delete 1 Initial 2 Done\n        uint256 create;\n        uint256 expire;\n    }\n\n    struct Self {\n        uint256 counter;\n        Task[] tasks; \n    }\n    \n    Self self;\n    \n    constructor(){\n        createTask(0,\"\",\"\",0); // trash register\n    }\n\n    function getLength() public view returns(uint256){\n        return self.tasks.length;\n    }\n\n    function createTask(uint id, string memory name, string memory description, uint expire) public {\n        self.tasks.push(Task(id, name, description, States.INITIAL, block.timestamp , expire));\n    }\n\n    function updateName(uint id, string memory value) public{\n        uint i = getIndex(id);\n        self.tasks[i].name = value;\n    }\n\n    function updateDescription(uint id, string memory value) public{\n        uint i = getIndex(id);\n        self.tasks[i].description = value;\n    }\n\n    function deleteTask(uint id) public {\n        updateStatus(id, 0);\n    }\n\n    function resetTask(uint id) public {\n        updateStatus(id, 1);\n    }\n\n    function doneTask(uint id) public{\n        updateStatus(id, 2);\n    }\n\n    function updateExpire(uint id, uint timestamp) public {\n        uint i = getIndex(id);\n        self.tasks[i].expire = timestamp;\n    }\n\n    function updateStatus(uint id, uint8 idStatus ) internal {\n        uint i = getIndex(id);\n        self.tasks[i].status = \n            idStatus == 0 ? States.DELETE : \n            idStatus == 1 ? States.INITIAL :\n            idStatus == 2 ? States.DONE :\n            States.ERROR ;\n        if(self.tasks[i].status == States.ERROR){\n            revert(\"ERROR: Index out bound!\");\n        }\n    }\n\n    function getTask( uint id) public view returns(Task memory){\n        uint len = self.tasks.length;\n        uint ir = 0;  \n        for (uint i = 0; i < len ; i++) {\n            if (self.tasks[i].id == id) return self.tasks[i]; \n            ir = len-i-1;  \n            if (ir <= i ) break;\n            if (self.tasks[ir].id == id) return self.tasks[i]; \n        }\n\n        return self.tasks[0];\n    }\n\n    function getIndex(uint id) internal view returns(uint){\n        uint len = self.tasks.length;\n        uint ir = 0;  \n        for (uint i = 0; i < len ; i++) {\n            if (self.tasks[i].id == id) return i; \n            ir = len-i-1;  \n            if (ir <= i ) break;\n            if (self.tasks[ir].id == id) return ir; \n        }\n        return 0;\n    }\n\n    function getStatus(uint id) public view returns(uint8) {\n        uint i = getIndex(id);\n        uint8 respond =\n            self.tasks[i].status == States.DELETE ? 0 : \n            self.tasks[i].status == States.INITIAL ? 1:\n            2 ;\n        return respond;\n    }\n    function getExpire(uint id) public view returns(uint){\n        uint i = getIndex(id);\n        return self.tasks[i].expire;\n    }\n}",
  "sourcePath": "/run/user/1000/gvfs/sftp:host=192.168.1.147,user=root/root/contractTask/contracts/TaskContract.sol",
  "compiler": {
    "name": "solc",
    "version": "0.8.17+commit.8df45f5f.Emscripten.clang"
  },
  "schemaVersion": "3.4.1",
  "updatedAt": "2023-01-18T18:57:08.005Z",
  "devdoc": {
    "kind": "dev",
    "methods": {},
    "version": 1
  },
  "userdoc": {
    "kind": "user",
    "methods": {},
    "version": 1
  }
}