{
  "contractName": "TaskContract",
  "abi": [
    {
      "inputs": [],
      "stateMutability": "nonpayable",
      "type": "constructor"
    },
    {
      "inputs": [],
      "name": "getLength",
      "outputs": [
        {
          "internalType": "uint256",
          "name": "",
          "type": "uint256"
        }
      ],
      "stateMutability": "view",
      "type": "function"
    },
    {
      "inputs": [
        {
          "internalType": "string",
          "name": "name",
          "type": "string"
        },
        {
          "internalType": "string",
          "name": "description",
          "type": "string"
        }
      ],
      "name": "createTask",
      "outputs": [],
      "stateMutability": "nonpayable",
      "type": "function"
    },
    {
      "inputs": [
        {
          "internalType": "uint256",
          "name": "id",
          "type": "uint256"
        },
        {
          "internalType": "string",
          "name": "value",
          "type": "string"
        }
      ],
      "name": "updateName",
      "outputs": [],
      "stateMutability": "nonpayable",
      "type": "function"
    },
    {
      "inputs": [
        {
          "internalType": "uint256",
          "name": "id",
          "type": "uint256"
        },
        {
          "internalType": "string",
          "name": "value",
          "type": "string"
        }
      ],
      "name": "updateDescription",
      "outputs": [],
      "stateMutability": "nonpayable",
      "type": "function"
    },
    {
      "inputs": [
        {
          "internalType": "uint256",
          "name": "id",
          "type": "uint256"
        }
      ],
      "name": "deleteTask",
      "outputs": [],
      "stateMutability": "nonpayable",
      "type": "function"
    },
    {
      "inputs": [
        {
          "internalType": "uint256",
          "name": "id",
          "type": "uint256"
        }
      ],
      "name": "resetTask",
      "outputs": [],
      "stateMutability": "nonpayable",
      "type": "function"
    },
    {
      "inputs": [
        {
          "internalType": "uint256",
          "name": "id",
          "type": "uint256"
        }
      ],
      "name": "doneTask",
      "outputs": [],
      "stateMutability": "nonpayable",
      "type": "function"
    },
    {
      "inputs": [
        {
          "internalType": "uint256",
          "name": "id",
          "type": "uint256"
        }
      ],
      "name": "getTask",
      "outputs": [
        {
          "components": [
            {
              "internalType": "uint256",
              "name": "id",
              "type": "uint256"
            },
            {
              "internalType": "string",
              "name": "name",
              "type": "string"
            },
            {
              "internalType": "string",
              "name": "description",
              "type": "string"
            },
            {
              "internalType": "enum TaskContract.States",
              "name": "status",
              "type": "uint8"
            },
            {
              "internalType": "uint256",
              "name": "create",
              "type": "uint256"
            },
            {
              "internalType": "uint256",
              "name": "expire",
              "type": "uint256"
            }
          ],
          "internalType": "struct TaskContract.Task",
          "name": "",
          "type": "tuple"
        }
      ],
      "stateMutability": "view",
      "type": "function"
    },
    {
      "inputs": [
        {
          "internalType": "uint256",
          "name": "numDays",
          "type": "uint256"
        }
      ],
      "name": "changeTimeExpire",
      "outputs": [],
      "stateMutability": "nonpayable",
      "type": "function"
    }
  ],
  "bytecode": "0x60806040523480156200001157600080fd5b5062093a806001819055506200002c6200003260201b60201c565b6200085b565b6200006260405180602001604052806000815250604051806020016040528060008152506200034c60201b60201c565b620000de6040518060400160405280600281526020017f54310000000000000000000000000000000000000000000000000000000000008152506040518060400160405280600781526020017f54617265612031000000000000000000000000000000000000000000000000008152506200034c60201b60201c565b6200015a6040518060400160405280600281526020017f54320000000000000000000000000000000000000000000000000000000000008152506040518060400160405280600781526020017f54617265612032000000000000000000000000000000000000000000000000008152506200034c60201b60201c565b620001d66040518060400160405280600281526020017f54330000000000000000000000000000000000000000000000000000000000008152506040518060400160405280600781526020017f54617265612033000000000000000000000000000000000000000000000000008152506200034c60201b60201c565b620002526040518060400160405280600281526020017f54340000000000000000000000000000000000000000000000000000000000008152506040518060400160405280600781526020017f54617265612034000000000000000000000000000000000000000000000000008152506200034c60201b60201c565b620002ce6040518060400160405280600281526020017f54350000000000000000000000000000000000000000000000000000000000008152506040518060400160405280600781526020017f54617265612035000000000000000000000000000000000000000000000000008152506200034c60201b60201c565b6200034a6040518060400160405280600281526020017f54360000000000000000000000000000000000000000000000000000000000008152506040518060400160405280600781526020017f54617265612036000000000000000000000000000000000000000000000000008152506200034c60201b60201c565b565b600060038054905090506000600154426200036891906200049a565b905060036040518060c0016040528084815260200186815260200185815260200160016003811115620003a0576200039f620004d5565b5b8152602001428152602001838152509080600181540180825580915050600190039060005260206000209060060201600090919091909150600082015181600001556020820151816001019081620003f9919062000774565b50604082015181600201908162000411919062000774565b5060608201518160030160006101000a81548160ff0219169083600381111562000440576200043f620004d5565b5b02179055506080820151816004015560a08201518160050155505050505050565b6000819050919050565b7f4e487b7100000000000000000000000000000000000000000000000000000000600052601160045260246000fd5b6000620004a78262000461565b9150620004b48362000461565b9250828201905080821115620004cf57620004ce6200046b565b5b92915050565b7f4e487b7100000000000000000000000000000000000000000000000000000000600052602160045260246000fd5b600081519050919050565b7f4e487b7100000000000000000000000000000000000000000000000000000000600052604160045260246000fd5b7f4e487b7100000000000000000000000000000000000000000000000000000000600052602260045260246000fd5b600060028204905060018216806200058657607f821691505b6020821081036200059c576200059b6200053e565b5b50919050565b60008190508160005260206000209050919050565b60006020601f8301049050919050565b600082821b905092915050565b600060088302620006067fffffffffffffffffffffffffffffffffffffffffffffffffffffffffffffffff82620005c7565b620006128683620005c7565b95508019841693508086168417925050509392505050565b6000819050919050565b6000620006556200064f620006498462000461565b6200062a565b62000461565b9050919050565b6000819050919050565b620006718362000634565b6200068962000680826200065c565b848454620005d4565b825550505050565b600090565b620006a062000691565b620006ad81848462000666565b505050565b5b81811015620006d557620006c960008262000696565b600181019050620006b3565b5050565b601f8211156200072457620006ee81620005a2565b620006f984620005b7565b8101602085101562000709578190505b620007216200071885620005b7565b830182620006b2565b50505b505050565b600082821c905092915050565b6000620007496000198460080262000729565b1980831691505092915050565b600062000764838362000736565b9150826002028217905092915050565b6200077f8262000504565b67ffffffffffffffff8111156200079b576200079a6200050f565b5b620007a782546200056d565b620007b4828285620006d9565b600060209050601f831160018114620007ec5760008415620007d7578287015190505b620007e3858262000756565b86555062000853565b601f198416620007fc86620005a2565b60005b828110156200082657848901518255600182019150602085019450602081019050620007ff565b8683101562000846578489015162000842601f89168262000736565b8355505b6001600288020188555050505b505050505050565b611635806200086b6000396000f3fe608060405234801561001057600080fd5b50600436106100935760003560e01c8063560f319211610066578063560f31921461011c5780635e6f83371461013857806388c1e34014610154578063be1c766b14610170578063c6f1532a1461018e57610093565b806314dee4b3146100985780631d65e77e146100b4578063292a4585146100e457806353e76f2c14610100575b600080fd5b6100b260048036038101906100ad9190610e22565b6101aa565b005b6100ce60048036038101906100c99190610e7e565b6101ef565b6040516100db9190611040565b60405180910390f35b6100fe60048036038101906100f99190611062565b6107b8565b005b61011a60048036038101906101159190610e22565b6108c1565b005b61013660048036038101906101319190610e7e565b610906565b005b610152600480360381019061014d9190610e7e565b610914565b005b61016e60048036038101906101699190610e7e565b610922565b005b610178610a37565b60405161018591906110e9565b60405180910390f35b6101a860048036038101906101a39190610e7e565b610a44565b005b60006101b583610a52565b905081600382815481106101cc576101cb611104565b5b906000526020600020906006020160020190816101e9919061133f565b50505050565b6101f7610c4a565b600060038054905090506000805b8281101561060257846003828154811061022257610221611104565b5b906000526020600020906006020160000154036103ed576003818154811061024d5761024c611104565b5b90600052602060002090600602016040518060c00160405290816000820154815260200160018201805461028090611162565b80601f01602080910402602001604051908101604052809291908181526020018280546102ac90611162565b80156102f95780601f106102ce576101008083540402835291602001916102f9565b820191906000526020600020905b8154815290600101906020018083116102dc57829003601f168201915b5050505050815260200160028201805461031290611162565b80601f016020809104026020016040519081016040528092919081815260200182805461033e90611162565b801561038b5780601f106103605761010080835404028352916020019161038b565b820191906000526020600020905b81548152906001019060200180831161036e57829003601f168201915b505050505081526020016003820160009054906101000a900460ff1660038111156103b9576103b8610f39565b5b60038111156103cb576103ca610f39565b5b81526020016004820154815260200160058201548152505093505050506107b3565b600181846103fb9190611440565b6104059190611440565b91508082111561060257846003838154811061042457610423611104565b5b906000526020600020906006020160000154036105ef576003818154811061044f5761044e611104565b5b90600052602060002090600602016040518060c00160405290816000820154815260200160018201805461048290611162565b80601f01602080910402602001604051908101604052809291908181526020018280546104ae90611162565b80156104fb5780601f106104d0576101008083540402835291602001916104fb565b820191906000526020600020905b8154815290600101906020018083116104de57829003601f168201915b5050505050815260200160028201805461051490611162565b80601f016020809104026020016040519081016040528092919081815260200182805461054090611162565b801561058d5780601f106105625761010080835404028352916020019161058d565b820191906000526020600020905b81548152906001019060200180831161057057829003601f168201915b505050505081526020016003820160009054906101000a900460ff1660038111156105bb576105ba610f39565b5b60038111156105cd576105cc610f39565b5b81526020016004820154815260200160058201548152505093505050506107b3565b80806105fa90611474565b915050610205565b50600360008154811061061857610617611104565b5b90600052602060002090600602016040518060c00160405290816000820154815260200160018201805461064b90611162565b80601f016020809104026020016040519081016040528092919081815260200182805461067790611162565b80156106c45780601f10610699576101008083540402835291602001916106c4565b820191906000526020600020905b8154815290600101906020018083116106a757829003601f168201915b505050505081526020016002820180546106dd90611162565b80601f016020809104026020016040519081016040528092919081815260200182805461070990611162565b80156107565780601f1061072b57610100808354040283529160200191610756565b820191906000526020600020905b81548152906001019060200180831161073957829003601f168201915b505050505081526020016003820160009054906101000a900460ff16600381111561078457610783610f39565b5b600381111561079657610795610f39565b5b815260200160048201548152602001600582015481525050925050505b919050565b600060038054905090506000600154426107d291906114bc565b905060036040518060c001604052808481526020018681526020018581526020016001600381111561080757610806610f39565b5b815260200142815260200183815250908060018154018082558091505060019003906000526020600020906006020160009091909190915060008201518160000155602082015181600101908161085e919061133f565b506040820151816002019081610874919061133f565b5060608201518160030160006101000a81548160ff021916908360038111156108a05761089f610f39565b5b02179055506080820151816004015560a08201518160050155505050505050565b60006108cc83610a52565b905081600382815481106108e3576108e2611104565b5b90600052602060002090600602016001019081610900919061133f565b50505050565b610911816000610b19565b50565b61091f816002610b19565b50565b600181036109395762015180600181905550610a34565b60028103610950576202a300600181905550610a33565b60038103610967576203f480600181905550610a32565b6004810361097e5762054600600181905550610a31565b600581036109955762069780600181905550610a30565b600681036109ac576207e900600181905550610a2f565b600781036109c35762093a80600181905550610a2e565b600e81036109da5762093a80600181905550610a2d565b601e81036109f15762127500600181905550610a2c565b6040517f08c379a0000000000000000000000000000000000000000000000000000000008152600401610a2390611573565b60405180910390fd5b5b5b5b5b5b5b5b5b50565b6000600380549050905090565b610a4f816001610b19565b50565b60008060038054905090506000805b82811015610b0c578460038281548110610a7e57610a7d611104565b5b90600052602060002090600602016000015403610aa057809350505050610b14565b60018184610aae9190611440565b610ab89190611440565b915080821115610b0c578460038381548110610ad757610ad6611104565b5b90600052602060002090600602016000015403610af957819350505050610b14565b8080610b0490611474565b915050610a61565b506000925050505b919050565b6000610b2483610a52565b905060008260ff1614610b5e5760018260ff1614610b565760028260ff1614610b4e576003610b51565b60025b610b59565b60015b610b61565b60005b60038281548110610b7557610b74611104565b5b906000526020600020906006020160030160006101000a81548160ff02191690836003811115610ba857610ba7610f39565b5b0217905550600380811115610bc057610bbf610f39565b5b60038281548110610bd457610bd3611104565b5b906000526020600020906006020160030160009054906101000a900460ff166003811115610c0557610c04610f39565b5b03610c45576040517f08c379a0000000000000000000000000000000000000000000000000000000008152600401610c3c906115df565b60405180910390fd5b505050565b6040518060c0016040528060008152602001606081526020016060815260200160006003811115610c7e57610c7d610f39565b5b815260200160008152602001600081525090565b6000604051905090565b600080fd5b600080fd5b6000819050919050565b610cb981610ca6565b8114610cc457600080fd5b50565b600081359050610cd681610cb0565b92915050565b600080fd5b600080fd5b6000601f19601f8301169050919050565b7f4e487b7100000000000000000000000000000000000000000000000000000000600052604160045260246000fd5b610d2f82610ce6565b810181811067ffffffffffffffff82111715610d4e57610d4d610cf7565b5b80604052505050565b6000610d61610c92565b9050610d6d8282610d26565b919050565b600067ffffffffffffffff821115610d8d57610d8c610cf7565b5b610d9682610ce6565b9050602081019050919050565b82818337600083830152505050565b6000610dc5610dc084610d72565b610d57565b905082815260208101848484011115610de157610de0610ce1565b5b610dec848285610da3565b509392505050565b600082601f830112610e0957610e08610cdc565b5b8135610e19848260208601610db2565b91505092915050565b60008060408385031215610e3957610e38610c9c565b5b6000610e4785828601610cc7565b925050602083013567ffffffffffffffff811115610e6857610e67610ca1565b5b610e7485828601610df4565b9150509250929050565b600060208284031215610e9457610e93610c9c565b5b6000610ea284828501610cc7565b91505092915050565b610eb481610ca6565b82525050565b600081519050919050565b600082825260208201905092915050565b60005b83811015610ef4578082015181840152602081019050610ed9565b60008484015250505050565b6000610f0b82610eba565b610f158185610ec5565b9350610f25818560208601610ed6565b610f2e81610ce6565b840191505092915050565b7f4e487b7100000000000000000000000000000000000000000000000000000000600052602160045260246000fd5b60048110610f7957610f78610f39565b5b50565b6000819050610f8a82610f68565b919050565b6000610f9a82610f7c565b9050919050565b610faa81610f8f565b82525050565b600060c083016000830151610fc86000860182610eab565b5060208301518482036020860152610fe08282610f00565b91505060408301518482036040860152610ffa8282610f00565b915050606083015161100f6060860182610fa1565b5060808301516110226080860182610eab565b5060a083015161103560a0860182610eab565b508091505092915050565b6000602082019050818103600083015261105a8184610fb0565b905092915050565b6000806040838503121561107957611078610c9c565b5b600083013567ffffffffffffffff81111561109757611096610ca1565b5b6110a385828601610df4565b925050602083013567ffffffffffffffff8111156110c4576110c3610ca1565b5b6110d085828601610df4565b9150509250929050565b6110e381610ca6565b82525050565b60006020820190506110fe60008301846110da565b92915050565b7f4e487b7100000000000000000000000000000000000000000000000000000000600052603260045260246000fd5b7f4e487b7100000000000000000000000000000000000000000000000000000000600052602260045260246000fd5b6000600282049050600182168061117a57607f821691505b60208210810361118d5761118c611133565b5b50919050565b60008190508160005260206000209050919050565b60006020601f8301049050919050565b600082821b905092915050565b6000600883026111f57fffffffffffffffffffffffffffffffffffffffffffffffffffffffffffffffff826111b8565b6111ff86836111b8565b95508019841693508086168417925050509392505050565b6000819050919050565b600061123c61123761123284610ca6565b611217565b610ca6565b9050919050565b6000819050919050565b61125683611221565b61126a61126282611243565b8484546111c5565b825550505050565b600090565b61127f611272565b61128a81848461124d565b505050565b5b818110156112ae576112a3600082611277565b600181019050611290565b5050565b601f8211156112f3576112c481611193565b6112cd846111a8565b810160208510156112dc578190505b6112f06112e8856111a8565b83018261128f565b50505b505050565b600082821c905092915050565b6000611316600019846008026112f8565b1980831691505092915050565b600061132f8383611305565b9150826002028217905092915050565b61134882610eba565b67ffffffffffffffff81111561136157611360610cf7565b5b61136b8254611162565b6113768282856112b2565b600060209050601f8311600181146113a95760008415611397578287015190505b6113a18582611323565b865550611409565b601f1984166113b786611193565b60005b828110156113df578489015182556001820191506020850194506020810190506113ba565b868310156113fc57848901516113f8601f891682611305565b8355505b6001600288020188555050505b505050505050565b7f4e487b7100000000000000000000000000000000000000000000000000000000600052601160045260246000fd5b600061144b82610ca6565b915061145683610ca6565b925082820390508181111561146e5761146d611411565b5b92915050565b600061147f82610ca6565b91507fffffffffffffffffffffffffffffffffffffffffffffffffffffffffffffffff82036114b1576114b0611411565b5b600182019050919050565b60006114c782610ca6565b91506114d283610ca6565b92508282019050808211156114ea576114e9611411565b5b92915050565b600082825260208201905092915050565b7f596f75206d7573742073656c656374206f6e65206f662074686520666f6c6c6f60008201527f77696e67206974656d73200a20312c322c332c342c352c362c372c31342c3330602082015250565b600061155d6040836114f0565b915061156882611501565b604082019050919050565b6000602082019050818103600083015261158c81611550565b9050919050565b7f4552524f523a20496e646578206f757420626f756e6421000000000000000000600082015250565b60006115c96017836114f0565b91506115d482611593565b602082019050919050565b600060208201905081810360008301526115f8816115bc565b905091905056fea26469706673582212201bd5890d9fa0c9382b94bbfa59054799db6422032d6f9c720979636292b68a7564736f6c63430008110033",
  "immutableReferences": {},
  "source": "// SPDX-License-Identifier: MIT\npragma solidity >=0.8.5 <0.9.0;\n\ncontract TaskContract {\n    uint256 counter;\n    uint    addTime; \n    enum States{ DELETE, INITIAL, DONE, ERROR } States status;\n\n    struct Task {\n        uint256 id;\n        string name;\n        string description;\n        States status; // 0 delete 1 Initial 2 Done\n        uint256 create;\n        uint256 expire;\n    }\n\n    Task[] tasks; \n\n    constructor(){\n        addTime = 7 days; \n        autoCreate();\n    }\n    function autoCreate() internal {\n        createTask(\"\", \"\");\n        createTask(\"T1\", \"Tarea 1\");\n        createTask(\"T2\", \"Tarea 2\");\n        createTask(\"T3\", \"Tarea 3\");\n        createTask(\"T4\", \"Tarea 4\");\n        createTask(\"T5\", \"Tarea 5\");\n        createTask(\"T6\", \"Tarea 6\");\n    }\n\n    function getLength() public view returns(uint256){\n        return tasks.length;\n    }\n\n    function createTask(string memory name, string memory description) public {\n        uint id = tasks.length;\n        uint expire = block.timestamp + addTime; \n        tasks.push(Task(id, name, description, States.INITIAL, block.timestamp, expire));\n    }\n\n    function updateName(uint id, string memory value) public{\n        uint i = getIndex(id);\n        tasks[i].name = value;\n    }\n\n    function updateDescription(uint id, string memory value) public{\n        uint i = getIndex(id);\n        tasks[i].description = value;\n    }\n\n    function deleteTask(uint id) public {\n        updateStatus(id, 0);\n    }\n\n    function resetTask(uint id) public {\n        updateStatus(id, 1);\n    }\n\n    function doneTask(uint id) public{\n        updateStatus(id, 2);\n    }\n\n    function updateStatus(uint id, uint8 idStatus ) internal {\n        uint i = getIndex(id);\n        tasks[i].status = \n            idStatus == 0 ? States.DELETE : \n            idStatus == 1 ? States.INITIAL :\n            idStatus == 2 ? States.DONE :\n            States.ERROR ;\n        if(tasks[i].status == States.ERROR){\n            revert(\"ERROR: Index out bound!\");\n        }\n    }\n\n    function getTask( uint id) public view returns(Task memory){\n        uint len = tasks.length;\n        uint ir = 0;  \n        for (uint i = 0; i < len ; i++) {\n            if (tasks[i].id == id) return tasks[i]; \n            ir = len-i-1;  \n            if (ir <= i ) break;\n            if (tasks[ir].id == id) return tasks[i]; \n        }\n\n        return tasks[0];\n    }\n\n    function getIndex(uint id) internal view returns(uint){\n        uint len = tasks.length;\n        uint ir = 0;  \n        for (uint i = 0; i < len ; i++) {\n            if (tasks[i].id == id) return i; \n            ir = len-i-1;  \n            if (ir <= i ) break;\n            if (tasks[ir].id == id) return ir; \n        }\n\n        return 0;\n    }\n\n    function changeTimeExpire(uint numDays) public{\n        if (numDays == 1){\n            addTime = 1 days;\n        } else if (numDays == 2){\n            addTime = 2 days;\n        } else if (numDays == 3){\n            addTime = 3 days;\n        } else if (numDays == 4){\n            addTime = 4 days;\n        } else if (numDays == 5){\n            addTime = 5 days;\n        } else if (numDays == 6){\n            addTime = 6 days;\n        } else if (numDays == 7){\n            addTime = 7 days;\n        } else if (numDays == 14){\n            addTime = 1 weeks;\n        } else if (numDays == 30){\n            addTime = 2 weeks;\n        } else {\n            revert(\"You must select one of the following items \\n 1,2,3,4,5,6,7,14,30\");\n        }\n    }\n}",
  "sourcePath": "/home/admin/Projects/MyFirstContract/contracts/TaskContract.sol",
  "compiler": {
    "name": "solc",
    "version": "0.8.17+commit.8df45f5f.Emscripten.clang"
  },
  "schemaVersion": "3.4.1",
  "updatedAt": "2023-01-16T09:30:04.800Z",
  "devdoc": {
    "kind": "dev",
    "methods": {},
    "version": 1
  },
  "userdoc": {
    "kind": "user",
    "methods": {},
    "version": 1
  }
}