{
  "contractName": "TaskContract",
  "abi": [
    {
      "inputs": [],
      "stateMutability": "nonpayable",
      "type": "constructor"
    },
    {
      "inputs": [],
      "name": "getLength",
      "outputs": [
        {
          "internalType": "uint256",
          "name": "",
          "type": "uint256"
        }
      ],
      "stateMutability": "view",
      "type": "function",
      "constant": true
    },
    {
      "inputs": [
        {
          "internalType": "string",
          "name": "name",
          "type": "string"
        },
        {
          "internalType": "string",
          "name": "description",
          "type": "string"
        }
      ],
      "name": "createTask",
      "outputs": [],
      "stateMutability": "nonpayable",
      "type": "function"
    },
    {
      "inputs": [
        {
          "internalType": "uint256",
          "name": "id",
          "type": "uint256"
        },
        {
          "internalType": "string",
          "name": "value",
          "type": "string"
        }
      ],
      "name": "updateName",
      "outputs": [],
      "stateMutability": "nonpayable",
      "type": "function"
    },
    {
      "inputs": [
        {
          "internalType": "uint256",
          "name": "id",
          "type": "uint256"
        },
        {
          "internalType": "string",
          "name": "value",
          "type": "string"
        }
      ],
      "name": "updateDescription",
      "outputs": [],
      "stateMutability": "nonpayable",
      "type": "function"
    },
    {
      "inputs": [
        {
          "internalType": "uint256",
          "name": "id",
          "type": "uint256"
        }
      ],
      "name": "deleteTask",
      "outputs": [],
      "stateMutability": "nonpayable",
      "type": "function"
    },
    {
      "inputs": [
        {
          "internalType": "uint256",
          "name": "id",
          "type": "uint256"
        }
      ],
      "name": "resetTask",
      "outputs": [],
      "stateMutability": "nonpayable",
      "type": "function"
    },
    {
      "inputs": [
        {
          "internalType": "uint256",
          "name": "id",
          "type": "uint256"
        }
      ],
      "name": "doneTask",
      "outputs": [],
      "stateMutability": "nonpayable",
      "type": "function"
    },
    {
      "inputs": [
        {
          "internalType": "uint256",
          "name": "id",
          "type": "uint256"
        }
      ],
      "name": "getTask",
      "outputs": [
        {
          "components": [
            {
              "internalType": "uint256",
              "name": "id",
              "type": "uint256"
            },
            {
              "internalType": "string",
              "name": "name",
              "type": "string"
            },
            {
              "internalType": "string",
              "name": "description",
              "type": "string"
            },
            {
              "internalType": "enum TaskContract.States",
              "name": "status",
              "type": "uint8"
            },
            {
              "internalType": "uint256",
              "name": "create",
              "type": "uint256"
            },
            {
              "internalType": "uint256",
              "name": "expire",
              "type": "uint256"
            }
          ],
          "internalType": "struct TaskContract.Task",
          "name": "",
          "type": "tuple"
        }
      ],
      "stateMutability": "view",
      "type": "function",
      "constant": true
    },
    {
      "inputs": [
        {
          "internalType": "uint256",
          "name": "id",
          "type": "uint256"
        }
      ],
      "name": "getStatus",
      "outputs": [
        {
          "internalType": "uint8",
          "name": "",
          "type": "uint8"
        }
      ],
      "stateMutability": "view",
      "type": "function",
      "constant": true
    },
    {
      "inputs": [
        {
          "internalType": "uint256",
          "name": "id",
          "type": "uint256"
        }
      ],
      "name": "getExpire",
      "outputs": [
        {
          "internalType": "uint256",
          "name": "",
          "type": "uint256"
        }
      ],
      "stateMutability": "view",
      "type": "function",
      "constant": true
    },
    {
      "inputs": [
        {
          "internalType": "uint256",
          "name": "id",
          "type": "uint256"
        },
        {
          "internalType": "uint256",
          "name": "numDays",
          "type": "uint256"
        }
      ],
      "name": "changeTimeExpire",
      "outputs": [],
      "stateMutability": "nonpayable",
      "type": "function"
    }
  ],
  "bytecode": "0x608060405234801561001057600080fd5b5062093a8060018001819055506119088061002c6000396000f3fe608060405234801561001057600080fd5b50600436106100a95760003560e01c80635c622a0e116100715780635c622a0e1461014e5780635e6f83371461017e57806395c78f821461019a578063be1c766b146101ca578063c6f1532a146101e8578063df7d156214610204576100a9565b806314dee4b3146100ae5780631d65e77e146100ca578063292a4585146100fa57806353e76f2c14610116578063560f319214610132575b600080fd5b6100c860048036038101906100c3919061107e565b610220565b005b6100e460048036038101906100df91906110da565b610268565b6040516100f1919061129c565b60405180910390f35b610114600480360381019061010f91906112be565b610843565b005b610130600480360381019061012b919061107e565b610954565b005b61014c600480360381019061014791906110da565b61099c565b005b610168600480360381019061016391906110da565b6109aa565b6040516101759190611352565b60405180910390f35b610198600480360381019061019391906110da565b610a99565b005b6101b460048036038101906101af91906110da565b610aa7565b6040516101c1919061137c565b60405180910390f35b6101d2610ae6565b6040516101df919061137c565b60405180910390f35b61020260048036038101906101fd91906110da565b610af6565b005b61021e60048036038101906102199190611397565b610b04565b005b600061022b83610c9f565b90508160016002018281548110610245576102446113d7565b5b906000526020600020906006020160020190816102629190611612565b50505050565b610270610ea6565b600060016002018054905090506000805b8281101561068a5784600160020182815481106102a1576102a06113d7565b5b9060005260206000209060060201600001540361046f57600160020181815481106102cf576102ce6113d7565b5b90600052602060002090600602016040518060c00160405290816000820154815260200160018201805461030290611435565b80601f016020809104026020016040519081016040528092919081815260200182805461032e90611435565b801561037b5780601f106103505761010080835404028352916020019161037b565b820191906000526020600020905b81548152906001019060200180831161035e57829003601f168201915b5050505050815260200160028201805461039490611435565b80601f01602080910402602001604051908101604052809291908181526020018280546103c090611435565b801561040d5780601f106103e25761010080835404028352916020019161040d565b820191906000526020600020905b8154815290600101906020018083116103f057829003601f168201915b505050505081526020016003820160009054906101000a900460ff16600381111561043b5761043a611195565b5b600381111561044d5761044c611195565b5b815260200160048201548152602001600582015481525050935050505061083e565b6001818461047d9190611713565b6104879190611713565b91508082111561068a5784600160020183815481106104a9576104a86113d7565b5b9060005260206000209060060201600001540361067757600160020181815481106104d7576104d66113d7565b5b90600052602060002090600602016040518060c00160405290816000820154815260200160018201805461050a90611435565b80601f016020809104026020016040519081016040528092919081815260200182805461053690611435565b80156105835780601f1061055857610100808354040283529160200191610583565b820191906000526020600020905b81548152906001019060200180831161056657829003601f168201915b5050505050815260200160028201805461059c90611435565b80601f01602080910402602001604051908101604052809291908181526020018280546105c890611435565b80156106155780601f106105ea57610100808354040283529160200191610615565b820191906000526020600020905b8154815290600101906020018083116105f857829003601f168201915b505050505081526020016003820160009054906101000a900460ff16600381111561064357610642611195565b5b600381111561065557610654611195565b5b815260200160048201548152602001600582015481525050935050505061083e565b808061068290611747565b915050610281565b5060016002016000815481106106a3576106a26113d7565b5b90600052602060002090600602016040518060c0016040529081600082015481526020016001820180546106d690611435565b80601f016020809104026020016040519081016040528092919081815260200182805461070290611435565b801561074f5780601f106107245761010080835404028352916020019161074f565b820191906000526020600020905b81548152906001019060200180831161073257829003601f168201915b5050505050815260200160028201805461076890611435565b80601f016020809104026020016040519081016040528092919081815260200182805461079490611435565b80156107e15780601f106107b6576101008083540402835291602001916107e1565b820191906000526020600020905b8154815290600101906020018083116107c457829003601f168201915b505050505081526020016003820160009054906101000a900460ff16600381111561080f5761080e611195565b5b600381111561082157610820611195565b5b815260200160048201548152602001600582015481525050925050505b919050565b600060016002018054905090506000600180015442610862919061178f565b905060016002016040518060c001604052808481526020018681526020018581526020016001600381111561089a57610899611195565b5b81526020014281526020018381525090806001815401808255809150506001900390600052602060002090600602016000909190919091506000820151816000015560208201518160010190816108f19190611612565b5060408201518160020190816109079190611612565b5060608201518160030160006101000a81548160ff0219169083600381111561093357610932611195565b5b02179055506080820151816004015560a08201518160050155505050505050565b600061095f83610c9f565b90508160016002018281548110610979576109786113d7565b5b906000526020600020906006020160010190816109969190611612565b50505050565b6109a7816000610d6f565b50565b6000806109b683610c9f565b905060008060038111156109cd576109cc611195565b5b600160020183815481106109e4576109e36113d7565b5b906000526020600020906006020160030160009054906101000a900460ff166003811115610a1557610a14611195565b5b14610a8a5760016003811115610a2e57610a2d611195565b5b60016002018381548110610a4557610a446113d7565b5b906000526020600020906006020160030160009054906101000a900460ff166003811115610a7657610a75611195565b5b14610a82576002610a85565b60015b610a8d565b60005b90508092505050919050565b610aa4816002610d6f565b50565b600080610ab383610c9f565b905060016002018181548110610acc57610acb6113d7565b5b906000526020600020906006020160050154915050919050565b6000600160020180549050905090565b610b01816001610d6f565b50565b6000610b0f83610c9f565b905060018203610b2a57620151806001800181905550610c35565b60028203610b43576202a3006001800181905550610c34565b60038203610b5c576203f4806001800181905550610c33565b60048203610b7557620546006001800181905550610c32565b60058203610b8e57620697806001800181905550610c31565b60068203610ba7576207e9006001800181905550610c30565b60078203610bc05762093a806001800181905550610c2f565b600e8203610bd95762093a806001800181905550610c2e565b601e8203610bf257621275006001800181905550610c2d565b6040517f08c379a0000000000000000000000000000000000000000000000000000000008152600401610c2490611846565b60405180910390fd5b5b5b5b5b5b5b5b5b60018001546001600201600181548110610c5257610c516113d7565b5b906000526020600020906006020160040154610c6e919061178f565b60016002018281548110610c8557610c846113d7565b5b906000526020600020906006020160050181905550505050565b60008060016002018054905090506000805b82811015610d62578460016002018281548110610cd157610cd06113d7565b5b90600052602060002090600602016000015403610cf357809350505050610d6a565b60018184610d019190611713565b610d0b9190611713565b915080821115610d62578460016002018381548110610d2d57610d2c6113d7565b5b90600052602060002090600602016000015403610d4f57819350505050610d6a565b8080610d5a90611747565b915050610cb1565b506000925050505b919050565b6000610d7a83610c9f565b905060008260ff1614610db45760018260ff1614610dac5760028260ff1614610da4576003610da7565b60025b610daf565b60015b610db7565b60005b60016002018281548110610dce57610dcd6113d7565b5b906000526020600020906006020160030160006101000a81548160ff02191690836003811115610e0157610e00611195565b5b0217905550600380811115610e1957610e18611195565b5b60016002018281548110610e3057610e2f6113d7565b5b906000526020600020906006020160030160009054906101000a900460ff166003811115610e6157610e60611195565b5b03610ea1576040517f08c379a0000000000000000000000000000000000000000000000000000000008152600401610e98906118b2565b60405180910390fd5b505050565b6040518060c0016040528060008152602001606081526020016060815260200160006003811115610eda57610ed9611195565b5b815260200160008152602001600081525090565b6000604051905090565b600080fd5b600080fd5b6000819050919050565b610f1581610f02565b8114610f2057600080fd5b50565b600081359050610f3281610f0c565b92915050565b600080fd5b600080fd5b6000601f19601f8301169050919050565b7f4e487b7100000000000000000000000000000000000000000000000000000000600052604160045260246000fd5b610f8b82610f42565b810181811067ffffffffffffffff82111715610faa57610fa9610f53565b5b80604052505050565b6000610fbd610eee565b9050610fc98282610f82565b919050565b600067ffffffffffffffff821115610fe957610fe8610f53565b5b610ff282610f42565b9050602081019050919050565b82818337600083830152505050565b600061102161101c84610fce565b610fb3565b90508281526020810184848401111561103d5761103c610f3d565b5b611048848285610fff565b509392505050565b600082601f83011261106557611064610f38565b5b813561107584826020860161100e565b91505092915050565b6000806040838503121561109557611094610ef8565b5b60006110a385828601610f23565b925050602083013567ffffffffffffffff8111156110c4576110c3610efd565b5b6110d085828601611050565b9150509250929050565b6000602082840312156110f0576110ef610ef8565b5b60006110fe84828501610f23565b91505092915050565b61111081610f02565b82525050565b600081519050919050565b600082825260208201905092915050565b60005b83811015611150578082015181840152602081019050611135565b60008484015250505050565b600061116782611116565b6111718185611121565b9350611181818560208601611132565b61118a81610f42565b840191505092915050565b7f4e487b7100000000000000000000000000000000000000000000000000000000600052602160045260246000fd5b600481106111d5576111d4611195565b5b50565b60008190506111e6826111c4565b919050565b60006111f6826111d8565b9050919050565b611206816111eb565b82525050565b600060c0830160008301516112246000860182611107565b506020830151848203602086015261123c828261115c565b91505060408301518482036040860152611256828261115c565b915050606083015161126b60608601826111fd565b50608083015161127e6080860182611107565b5060a083015161129160a0860182611107565b508091505092915050565b600060208201905081810360008301526112b6818461120c565b905092915050565b600080604083850312156112d5576112d4610ef8565b5b600083013567ffffffffffffffff8111156112f3576112f2610efd565b5b6112ff85828601611050565b925050602083013567ffffffffffffffff8111156113205761131f610efd565b5b61132c85828601611050565b9150509250929050565b600060ff82169050919050565b61134c81611336565b82525050565b60006020820190506113676000830184611343565b92915050565b61137681610f02565b82525050565b6000602082019050611391600083018461136d565b92915050565b600080604083850312156113ae576113ad610ef8565b5b60006113bc85828601610f23565b92505060206113cd85828601610f23565b9150509250929050565b7f4e487b7100000000000000000000000000000000000000000000000000000000600052603260045260246000fd5b7f4e487b7100000000000000000000000000000000000000000000000000000000600052602260045260246000fd5b6000600282049050600182168061144d57607f821691505b6020821081036114605761145f611406565b5b50919050565b60008190508160005260206000209050919050565b60006020601f8301049050919050565b600082821b905092915050565b6000600883026114c87fffffffffffffffffffffffffffffffffffffffffffffffffffffffffffffffff8261148b565b6114d2868361148b565b95508019841693508086168417925050509392505050565b6000819050919050565b600061150f61150a61150584610f02565b6114ea565b610f02565b9050919050565b6000819050919050565b611529836114f4565b61153d61153582611516565b848454611498565b825550505050565b600090565b611552611545565b61155d818484611520565b505050565b5b818110156115815761157660008261154a565b600181019050611563565b5050565b601f8211156115c65761159781611466565b6115a08461147b565b810160208510156115af578190505b6115c36115bb8561147b565b830182611562565b50505b505050565b600082821c905092915050565b60006115e9600019846008026115cb565b1980831691505092915050565b600061160283836115d8565b9150826002028217905092915050565b61161b82611116565b67ffffffffffffffff81111561163457611633610f53565b5b61163e8254611435565b611649828285611585565b600060209050601f83116001811461167c576000841561166a578287015190505b61167485826115f6565b8655506116dc565b601f19841661168a86611466565b60005b828110156116b25784890151825560018201915060208501945060208101905061168d565b868310156116cf57848901516116cb601f8916826115d8565b8355505b6001600288020188555050505b505050505050565b7f4e487b7100000000000000000000000000000000000000000000000000000000600052601160045260246000fd5b600061171e82610f02565b915061172983610f02565b9250828203905081811115611741576117406116e4565b5b92915050565b600061175282610f02565b91507fffffffffffffffffffffffffffffffffffffffffffffffffffffffffffffffff8203611784576117836116e4565b5b600182019050919050565b600061179a82610f02565b91506117a583610f02565b92508282019050808211156117bd576117bc6116e4565b5b92915050565b600082825260208201905092915050565b7f596f75206d7573742073656c656374206f6e65206f662074686520666f6c6c6f60008201527f77696e67206974656d73200a20312c322c332c342c352c362c372c31342c3330602082015250565b60006118306040836117c3565b915061183b826117d4565b604082019050919050565b6000602082019050818103600083015261185f81611823565b9050919050565b7f4552524f523a20496e646578206f757420626f756e6421000000000000000000600082015250565b600061189c6017836117c3565b91506118a782611866565b602082019050919050565b600060208201905081810360008301526118cb8161188f565b905091905056fea2646970667358221220f59d6ffc28767989cd658c2dc15fe3c29c8e771974beabd2247d3451aa0cba8364736f6c63430008110033",
  "immutableReferences": {},
  "source": "// SPDX-License-Identifier: MIT\npragma solidity ^0.8.7;\n\ncontract TaskContract {\n    \n    enum States{ DELETE, INITIAL, DONE, ERROR } States status;\n    \n    struct Task {\n        uint256 id;\n        string name;\n        string description;\n        States status; // 0 delete 1 Initial 2 Done\n        uint256 create;\n        uint256 expire;\n    }\n\n    struct Self {\n        uint256 counter;\n        uint addTime; \n        Task[] tasks; \n    }\n    \n    Self self;\n    \n    constructor(){\n        self.addTime = 7 days; \n    }\n\n    function getLength() public view returns(uint256){\n        return self.tasks.length;\n    }\n\n    function createTask(string memory name, string memory description) public {\n        uint id = self.tasks.length;\n        uint expire = block.timestamp + self.addTime; \n        self.tasks.push(Task(id, name, description, States.INITIAL, block.timestamp, expire));\n    }\n\n    function updateName(uint id, string memory value) public{\n        uint i = getIndex(id);\n        self.tasks[i].name = value;\n    }\n\n    function updateDescription(uint id, string memory value) public{\n        uint i = getIndex(id);\n        self.tasks[i].description = value;\n    }\n\n    function deleteTask(uint id) public {\n        updateStatus(id, 0);\n    }\n\n    function resetTask(uint id) public {\n        updateStatus(id, 1);\n    }\n\n    function doneTask(uint id) public{\n        updateStatus(id, 2);\n    }\n\n    function updateStatus(uint id, uint8 idStatus ) internal {\n        uint i = getIndex(id);\n        self.tasks[i].status = \n            idStatus == 0 ? States.DELETE : \n            idStatus == 1 ? States.INITIAL :\n            idStatus == 2 ? States.DONE :\n            States.ERROR ;\n        if(self.tasks[i].status == States.ERROR){\n            revert(\"ERROR: Index out bound!\");\n        }\n    }\n\n    function getTask( uint id) public view returns(Task memory){\n        uint len = self.tasks.length;\n        uint ir = 0;  \n        for (uint i = 0; i < len ; i++) {\n            if (self.tasks[i].id == id) return self.tasks[i]; \n            ir = len-i-1;  \n            if (ir <= i ) break;\n            if (self.tasks[ir].id == id) return self.tasks[i]; \n        }\n\n        return self.tasks[0];\n    }\n\n    function getIndex(uint id) internal view returns(uint){\n        uint len = self.tasks.length;\n        uint ir = 0;  \n        for (uint i = 0; i < len ; i++) {\n            if (self.tasks[i].id == id) return i; \n            ir = len-i-1;  \n            if (ir <= i ) break;\n            if (self.tasks[ir].id == id) return ir; \n        }\n\n        return 0;\n    }\n\n    function getStatus(uint id) public view returns(uint8) {\n        uint i = getIndex(id);\n        uint8 respond =\n            self.tasks[i].status == States.DELETE ? 0 : \n            self.tasks[i].status == States.INITIAL ? 1:\n            2 ;\n        return respond;\n    }\n    function getExpire(uint id) public view returns(uint){\n        uint i = getIndex(id);\n        return self.tasks[i].expire;\n    }\n    \n    function changeTimeExpire(uint id, uint numDays) public{\n        uint i = getIndex(id);\n        if (numDays == 1){\n            self.addTime = 1 days;\n        } else if (numDays == 2){\n            self.addTime = 2 days;\n        } else if (numDays == 3){\n            self.addTime = 3 days;\n        } else if (numDays == 4){\n            self.addTime = 4 days;\n        } else if (numDays == 5){\n            self.addTime = 5 days;\n        } else if (numDays == 6){\n            self.addTime = 6 days;\n        } else if (numDays == 7){\n            self.addTime = 7 days;\n        } else if (numDays == 14){\n            self.addTime = 1 weeks;\n        } else if (numDays == 30){\n            self.addTime = 2 weeks;\n        } else {\n            revert(\"You must select one of the following items \\n 1,2,3,4,5,6,7,14,30\");\n        }\n\n        self.tasks[i].expire = self.tasks[1].create + self.addTime; \n    }\n}",
  "sourcePath": "/home/admin/Projects/MyFirstContract/contracts/TaskContract.sol",
  "compiler": {
    "name": "solc",
    "version": "0.8.17+commit.8df45f5f.Emscripten.clang"
  },
  "schemaVersion": "3.4.11",
  "updatedAt": "2023-01-18T11:17:23.304Z",
  "networkType": "ethereum",
  "devdoc": {
    "kind": "dev",
    "methods": {},
    "version": 1
  },
  "userdoc": {
    "kind": "user",
    "methods": {},
    "version": 1
  }
}