{
  "contractName": "TaskContract",
  "abi": [
    {
      "inputs": [],
      "stateMutability": "nonpayable",
      "type": "constructor"
    },
    {
      "inputs": [
        {
          "internalType": "uint256",
          "name": "",
          "type": "uint256"
        }
      ],
      "name": "tasks",
      "outputs": [
        {
          "internalType": "uint256",
          "name": "id",
          "type": "uint256"
        },
        {
          "internalType": "string",
          "name": "name",
          "type": "string"
        },
        {
          "internalType": "string",
          "name": "description",
          "type": "string"
        },
        {
          "internalType": "enum TaskContract.States",
          "name": "status",
          "type": "uint8"
        },
        {
          "internalType": "uint256",
          "name": "createAt",
          "type": "uint256"
        }
      ],
      "stateMutability": "view",
      "type": "function"
    },
    {
      "inputs": [],
      "name": "getLength",
      "outputs": [
        {
          "internalType": "uint256",
          "name": "",
          "type": "uint256"
        }
      ],
      "stateMutability": "view",
      "type": "function"
    },
    {
      "inputs": [
        {
          "internalType": "string",
          "name": "name",
          "type": "string"
        },
        {
          "internalType": "string",
          "name": "description",
          "type": "string"
        }
      ],
      "name": "createTask",
      "outputs": [],
      "stateMutability": "nonpayable",
      "type": "function"
    },
    {
      "inputs": [
        {
          "internalType": "uint256",
          "name": "id",
          "type": "uint256"
        },
        {
          "internalType": "string",
          "name": "value",
          "type": "string"
        }
      ],
      "name": "updateName",
      "outputs": [],
      "stateMutability": "nonpayable",
      "type": "function"
    },
    {
      "inputs": [
        {
          "internalType": "uint256",
          "name": "id",
          "type": "uint256"
        },
        {
          "internalType": "string",
          "name": "value",
          "type": "string"
        }
      ],
      "name": "updateDescription",
      "outputs": [],
      "stateMutability": "nonpayable",
      "type": "function"
    },
    {
      "inputs": [
        {
          "internalType": "uint256",
          "name": "id",
          "type": "uint256"
        }
      ],
      "name": "deleteTask",
      "outputs": [],
      "stateMutability": "nonpayable",
      "type": "function"
    },
    {
      "inputs": [
        {
          "internalType": "uint256",
          "name": "id",
          "type": "uint256"
        }
      ],
      "name": "resetTask",
      "outputs": [],
      "stateMutability": "nonpayable",
      "type": "function"
    },
    {
      "inputs": [
        {
          "internalType": "uint256",
          "name": "id",
          "type": "uint256"
        }
      ],
      "name": "doneTask",
      "outputs": [],
      "stateMutability": "nonpayable",
      "type": "function"
    },
    {
      "inputs": [
        {
          "internalType": "uint256",
          "name": "id",
          "type": "uint256"
        }
      ],
      "name": "getTask",
      "outputs": [
        {
          "components": [
            {
              "internalType": "uint256",
              "name": "id",
              "type": "uint256"
            },
            {
              "internalType": "string",
              "name": "name",
              "type": "string"
            },
            {
              "internalType": "string",
              "name": "description",
              "type": "string"
            },
            {
              "internalType": "enum TaskContract.States",
              "name": "status",
              "type": "uint8"
            },
            {
              "internalType": "uint256",
              "name": "createAt",
              "type": "uint256"
            }
          ],
          "internalType": "struct TaskContract.Task",
          "name": "",
          "type": "tuple"
        }
      ],
      "stateMutability": "view",
      "type": "function"
    }
  ],
  "bytecode": "0x60806040523480156200001157600080fd5b50620000226200002860201b60201c565b620007c2565b6200005860405180602001604052806000815250604051806020016040528060008152506200034260201b60201c565b620000d46040518060400160405280600281526020017f54310000000000000000000000000000000000000000000000000000000000008152506040518060400160405280600781526020017f54617265612031000000000000000000000000000000000000000000000000008152506200034260201b60201c565b620001506040518060400160405280600281526020017f54320000000000000000000000000000000000000000000000000000000000008152506040518060400160405280600781526020017f54617265612032000000000000000000000000000000000000000000000000008152506200034260201b60201c565b620001cc6040518060400160405280600281526020017f54330000000000000000000000000000000000000000000000000000000000008152506040518060400160405280600781526020017f54617265612033000000000000000000000000000000000000000000000000008152506200034260201b60201c565b620002486040518060400160405280600281526020017f54340000000000000000000000000000000000000000000000000000000000008152506040518060400160405280600781526020017f54617265612034000000000000000000000000000000000000000000000000008152506200034260201b60201c565b620002c46040518060400160405280600281526020017f54350000000000000000000000000000000000000000000000000000000000008152506040518060400160405280600781526020017f54617265612035000000000000000000000000000000000000000000000000008152506200034260201b60201c565b620003406040518060400160405280600281526020017f54360000000000000000000000000000000000000000000000000000000000008152506040518060400160405280600781526020017f54617265612036000000000000000000000000000000000000000000000000008152506200034260201b60201c565b565b6000600380549050905060036040518060a001604052808381526020018581526020018481526020016001600381111562000382576200038162000432565b5b8152602001428152509080600181540180825580915050600190039060005260206000209060050201600090919091909150600082015181600001556020820151816001019081620003d59190620006db565b506040820151816002019081620003ed9190620006db565b5060608201518160030160006101000a81548160ff021916908360038111156200041c576200041b62000432565b5b0217905550608082015181600401555050505050565b7f4e487b7100000000000000000000000000000000000000000000000000000000600052602160045260246000fd5b600081519050919050565b7f4e487b7100000000000000000000000000000000000000000000000000000000600052604160045260246000fd5b7f4e487b7100000000000000000000000000000000000000000000000000000000600052602260045260246000fd5b60006002820490506001821680620004e357607f821691505b602082108103620004f957620004f86200049b565b5b50919050565b60008190508160005260206000209050919050565b60006020601f8301049050919050565b600082821b905092915050565b600060088302620005637fffffffffffffffffffffffffffffffffffffffffffffffffffffffffffffffff8262000524565b6200056f868362000524565b95508019841693508086168417925050509392505050565b6000819050919050565b6000819050919050565b6000620005bc620005b6620005b08462000587565b62000591565b62000587565b9050919050565b6000819050919050565b620005d8836200059b565b620005f0620005e782620005c3565b84845462000531565b825550505050565b600090565b62000607620005f8565b62000614818484620005cd565b505050565b5b818110156200063c5762000630600082620005fd565b6001810190506200061a565b5050565b601f8211156200068b576200065581620004ff565b620006608462000514565b8101602085101562000670578190505b620006886200067f8562000514565b83018262000619565b50505b505050565b600082821c905092915050565b6000620006b06000198460080262000690565b1980831691505092915050565b6000620006cb83836200069d565b9150826002028217905092915050565b620006e68262000461565b67ffffffffffffffff8111156200070257620007016200046c565b5b6200070e8254620004ca565b6200071b82828562000640565b600060209050601f8311600181146200075357600084156200073e578287015190505b6200074a8582620006bd565b865550620007ba565b601f1984166200076386620004ff565b60005b828110156200078d5784890151825560018201915060208501945060208101905062000766565b86831015620007ad5784890151620007a9601f8916826200069d565b8355505b6001600288020188555050505b505050505050565b61161380620007d26000396000f3fe608060405234801561001057600080fd5b50600436106100935760003560e01c8063560f319211610066578063560f31921461011c5780635e6f8337146101385780638d97767214610154578063be1c766b14610188578063c6f1532a146101a657610093565b806314dee4b3146100985780631d65e77e146100b4578063292a4585146100e457806353e76f2c14610100575b600080fd5b6100b260048036038101906100ad9190610e30565b6101c2565b005b6100ce60048036038101906100c99190610e8c565b610207565b6040516100db919061103b565b60405180910390f35b6100fe60048036038101906100f9919061105d565b6107b2565b005b61011a60048036038101906101159190610e30565b610898565b005b61013660048036038101906101319190610e8c565b6108dd565b005b610152600480360381019061014d9190610e8c565b6108eb565b005b61016e60048036038101906101699190610e8c565b6108f9565b60405161017f95949392919061113d565b60405180910390f35b610190610a4c565b60405161019d919061119e565b60405180910390f35b6101c060048036038101906101bb9190610e8c565b610a59565b005b60006101cd83610a67565b905081600382815481106101e4576101e36111b9565b5b9060005260206000209060050201600201908161020191906113f4565b50505050565b61020f610c5f565b600060038054905090506000805b8281101561060657846003828154811061023a576102396111b9565b5b906000526020600020906005020160000154036103fb5760038181548110610265576102646111b9565b5b90600052602060002090600502016040518060a00160405290816000820154815260200160018201805461029890611217565b80601f01602080910402602001604051908101604052809291908181526020018280546102c490611217565b80156103115780601f106102e657610100808354040283529160200191610311565b820191906000526020600020905b8154815290600101906020018083116102f457829003601f168201915b5050505050815260200160028201805461032a90611217565b80601f016020809104026020016040519081016040528092919081815260200182805461035690611217565b80156103a35780601f10610378576101008083540402835291602001916103a3565b820191906000526020600020905b81548152906001019060200180831161038657829003601f168201915b505050505081526020016003820160009054906101000a900460ff1660038111156103d1576103d0610f47565b5b60038111156103e3576103e2610f47565b5b815260200160048201548152505093505050506107ad565b6001818461040991906114f5565b61041391906114f5565b915080821115610606578460038381548110610432576104316111b9565b5b906000526020600020906005020160000154036105f3576003818154811061045d5761045c6111b9565b5b90600052602060002090600502016040518060a00160405290816000820154815260200160018201805461049090611217565b80601f01602080910402602001604051908101604052809291908181526020018280546104bc90611217565b80156105095780601f106104de57610100808354040283529160200191610509565b820191906000526020600020905b8154815290600101906020018083116104ec57829003601f168201915b5050505050815260200160028201805461052290611217565b80601f016020809104026020016040519081016040528092919081815260200182805461054e90611217565b801561059b5780601f106105705761010080835404028352916020019161059b565b820191906000526020600020905b81548152906001019060200180831161057e57829003601f168201915b505050505081526020016003820160009054906101000a900460ff1660038111156105c9576105c8610f47565b5b60038111156105db576105da610f47565b5b815260200160048201548152505093505050506107ad565b80806105fe90611529565b91505061021d565b50600360008154811061061c5761061b6111b9565b5b90600052602060002090600502016040518060a00160405290816000820154815260200160018201805461064f90611217565b80601f016020809104026020016040519081016040528092919081815260200182805461067b90611217565b80156106c85780601f1061069d576101008083540402835291602001916106c8565b820191906000526020600020905b8154815290600101906020018083116106ab57829003601f168201915b505050505081526020016002820180546106e190611217565b80601f016020809104026020016040519081016040528092919081815260200182805461070d90611217565b801561075a5780601f1061072f5761010080835404028352916020019161075a565b820191906000526020600020905b81548152906001019060200180831161073d57829003601f168201915b505050505081526020016003820160009054906101000a900460ff16600381111561078857610787610f47565b5b600381111561079a57610799610f47565b5b8152602001600482015481525050925050505b919050565b6000600380549050905060036040518060a00160405280838152602001858152602001848152602001600160038111156107ef576107ee610f47565b5b815260200142815250908060018154018082558091505060019003906000526020600020906005020160009091909190915060008201518160000155602082015181600101908161084091906113f4565b50604082015181600201908161085691906113f4565b5060608201518160030160006101000a81548160ff0219169083600381111561088257610881610f47565b5b0217905550608082015181600401555050505050565b60006108a383610a67565b905081600382815481106108ba576108b96111b9565b5b906000526020600020906005020160010190816108d791906113f4565b50505050565b6108e8816000610b2e565b50565b6108f6816002610b2e565b50565b600260205280600052604060002060009150905080600001549080600101805461092290611217565b80601f016020809104026020016040519081016040528092919081815260200182805461094e90611217565b801561099b5780601f106109705761010080835404028352916020019161099b565b820191906000526020600020905b81548152906001019060200180831161097e57829003601f168201915b5050505050908060020180546109b090611217565b80601f01602080910402602001604051908101604052809291908181526020018280546109dc90611217565b8015610a295780601f106109fe57610100808354040283529160200191610a29565b820191906000526020600020905b815481529060010190602001808311610a0c57829003601f168201915b5050505050908060030160009054906101000a900460ff16908060040154905085565b6000600380549050905090565b610a64816001610b2e565b50565b60008060038054905090506000805b82811015610b21578460038281548110610a9357610a926111b9565b5b90600052602060002090600502016000015403610ab557809350505050610b29565b60018184610ac391906114f5565b610acd91906114f5565b915080821115610b21578460038381548110610aec57610aeb6111b9565b5b90600052602060002090600502016000015403610b0e57819350505050610b29565b8080610b1990611529565b915050610a76565b506000925050505b919050565b6000610b3983610a67565b905060008260ff1614610b735760018260ff1614610b6b5760028260ff1614610b63576003610b66565b60025b610b6e565b60015b610b76565b60005b60038281548110610b8a57610b896111b9565b5b906000526020600020906005020160030160006101000a81548160ff02191690836003811115610bbd57610bbc610f47565b5b0217905550600380811115610bd557610bd4610f47565b5b60038281548110610be957610be86111b9565b5b906000526020600020906005020160030160009054906101000a900460ff166003811115610c1a57610c19610f47565b5b03610c5a576040517f08c379a0000000000000000000000000000000000000000000000000000000008152600401610c51906115bd565b60405180910390fd5b505050565b6040518060a0016040528060008152602001606081526020016060815260200160006003811115610c9357610c92610f47565b5b8152602001600081525090565b6000604051905090565b600080fd5b600080fd5b6000819050919050565b610cc781610cb4565b8114610cd257600080fd5b50565b600081359050610ce481610cbe565b92915050565b600080fd5b600080fd5b6000601f19601f8301169050919050565b7f4e487b7100000000000000000000000000000000000000000000000000000000600052604160045260246000fd5b610d3d82610cf4565b810181811067ffffffffffffffff82111715610d5c57610d5b610d05565b5b80604052505050565b6000610d6f610ca0565b9050610d7b8282610d34565b919050565b600067ffffffffffffffff821115610d9b57610d9a610d05565b5b610da482610cf4565b9050602081019050919050565b82818337600083830152505050565b6000610dd3610dce84610d80565b610d65565b905082815260208101848484011115610def57610dee610cef565b5b610dfa848285610db1565b509392505050565b600082601f830112610e1757610e16610cea565b5b8135610e27848260208601610dc0565b91505092915050565b60008060408385031215610e4757610e46610caa565b5b6000610e5585828601610cd5565b925050602083013567ffffffffffffffff811115610e7657610e75610caf565b5b610e8285828601610e02565b9150509250929050565b600060208284031215610ea257610ea1610caa565b5b6000610eb084828501610cd5565b91505092915050565b610ec281610cb4565b82525050565b600081519050919050565b600082825260208201905092915050565b60005b83811015610f02578082015181840152602081019050610ee7565b60008484015250505050565b6000610f1982610ec8565b610f238185610ed3565b9350610f33818560208601610ee4565b610f3c81610cf4565b840191505092915050565b7f4e487b7100000000000000000000000000000000000000000000000000000000600052602160045260246000fd5b60048110610f8757610f86610f47565b5b50565b6000819050610f9882610f76565b919050565b6000610fa882610f8a565b9050919050565b610fb881610f9d565b82525050565b600060a083016000830151610fd66000860182610eb9565b5060208301518482036020860152610fee8282610f0e565b915050604083015184820360408601526110088282610f0e565b915050606083015161101d6060860182610faf565b5060808301516110306080860182610eb9565b508091505092915050565b600060208201905081810360008301526110558184610fbe565b905092915050565b6000806040838503121561107457611073610caa565b5b600083013567ffffffffffffffff81111561109257611091610caf565b5b61109e85828601610e02565b925050602083013567ffffffffffffffff8111156110bf576110be610caf565b5b6110cb85828601610e02565b9150509250929050565b6110de81610cb4565b82525050565b600082825260208201905092915050565b600061110082610ec8565b61110a81856110e4565b935061111a818560208601610ee4565b61112381610cf4565b840191505092915050565b61113781610f9d565b82525050565b600060a08201905061115260008301886110d5565b818103602083015261116481876110f5565b9050818103604083015261117881866110f5565b9050611187606083018561112e565b61119460808301846110d5565b9695505050505050565b60006020820190506111b360008301846110d5565b92915050565b7f4e487b7100000000000000000000000000000000000000000000000000000000600052603260045260246000fd5b7f4e487b7100000000000000000000000000000000000000000000000000000000600052602260045260246000fd5b6000600282049050600182168061122f57607f821691505b602082108103611242576112416111e8565b5b50919050565b60008190508160005260206000209050919050565b60006020601f8301049050919050565b600082821b905092915050565b6000600883026112aa7fffffffffffffffffffffffffffffffffffffffffffffffffffffffffffffffff8261126d565b6112b4868361126d565b95508019841693508086168417925050509392505050565b6000819050919050565b60006112f16112ec6112e784610cb4565b6112cc565b610cb4565b9050919050565b6000819050919050565b61130b836112d6565b61131f611317826112f8565b84845461127a565b825550505050565b600090565b611334611327565b61133f818484611302565b505050565b5b818110156113635761135860008261132c565b600181019050611345565b5050565b601f8211156113a85761137981611248565b6113828461125d565b81016020851015611391578190505b6113a561139d8561125d565b830182611344565b50505b505050565b600082821c905092915050565b60006113cb600019846008026113ad565b1980831691505092915050565b60006113e483836113ba565b9150826002028217905092915050565b6113fd82610ec8565b67ffffffffffffffff81111561141657611415610d05565b5b6114208254611217565b61142b828285611367565b600060209050601f83116001811461145e576000841561144c578287015190505b61145685826113d8565b8655506114be565b601f19841661146c86611248565b60005b828110156114945784890151825560018201915060208501945060208101905061146f565b868310156114b157848901516114ad601f8916826113ba565b8355505b6001600288020188555050505b505050505050565b7f4e487b7100000000000000000000000000000000000000000000000000000000600052601160045260246000fd5b600061150082610cb4565b915061150b83610cb4565b9250828203905081811115611523576115226114c6565b5b92915050565b600061153482610cb4565b91507fffffffffffffffffffffffffffffffffffffffffffffffffffffffffffffffff8203611566576115656114c6565b5b600182019050919050565b7f4552524f523a20496e646578206f757420626f756e6421000000000000000000600082015250565b60006115a76017836110e4565b91506115b282611571565b602082019050919050565b600060208201905081810360008301526115d68161159a565b905091905056fea2646970667358221220f65a66737590b12f461575ea5bb6959596349ad9e48f99bf79504aa02c50fd6a64736f6c63430008110033",
  "immutableReferences": {},
  "source": "// SPDX-License-Identifier: MIT\npragma solidity >=0.8.5 <0.9.0;\n\ncontract TaskContract {\n    uint256 counter;\n\n    enum States{ DELETE, INITIAL, DONE, ERROR } States status;\n\n    struct Task {\n        uint256 id;\n        string name;\n        string description;\n        States status; // 0 delete 1 Initial 2 Done\n        uint256 createAt;\n    }\n\n    mapping(uint256 => Task) public tasks;\n    Task[] atasks; \n\n    constructor(){\n        autoCreate();\n    }\n   \n    function autoCreate() internal {\n        createTask(\"\", \"\");\n        createTask(\"T1\", \"Tarea 1\");\n        createTask(\"T2\", \"Tarea 2\");\n        createTask(\"T3\", \"Tarea 3\");\n        createTask(\"T4\", \"Tarea 4\");\n        createTask(\"T5\", \"Tarea 5\");\n        createTask(\"T6\", \"Tarea 6\");\n    }\n\n    function getLength() public view returns(uint256){\n        return atasks.length;\n    }\n    function createTask(string memory name, string memory description) public {\n        uint id = atasks.length;\n        atasks.push(Task(id, name, description, States.INITIAL, block.timestamp));\n    }\n    function updateName(uint id, string memory value) public{\n        uint i = getIndex(id);\n        atasks[i].name = value;\n    }\n    function updateDescription(uint id, string memory value) public{\n        uint i = getIndex(id);\n        atasks[i].description = value;\n    }\n    function deleteTask(uint id) public {\n        updateStatus(id, 0);\n    }\n    function resetTask(uint id) public {\n        updateStatus(id, 1);\n    }\n    function doneTask(uint id) public{\n        updateStatus(id, 2);\n    }\n    function updateStatus(uint id, uint8 idStatus ) internal {\n        uint i = getIndex(id);\n        atasks[i].status = \n            idStatus == 0 ? States.DELETE : \n            idStatus == 1 ? States.INITIAL :\n            idStatus == 2 ? States.DONE :\n            States.ERROR ;\n        if(atasks[i].status == States.ERROR){\n            revert(\"ERROR: Index out bound!\");\n        }\n    }\n    function getTask( uint id) public view returns(Task memory){\n        uint len = atasks.length;\n        uint ir = 0;  \n        for (uint i = 0; i < len ; i++) {\n            if (atasks[i].id == id) return atasks[i]; \n            ir = len-i-1;  \n            if (ir <= i ) break;\n            if (atasks[ir].id == id) return atasks[i]; \n        }\n\n        return atasks[0];\n    }\n    function getIndex(uint id) internal view returns(uint){\n        uint len = atasks.length;\n        uint ir = 0;  \n        for (uint i = 0; i < len ; i++) {\n            if (atasks[i].id == id) return i; \n            ir = len-i-1;  \n            if (ir <= i ) break;\n            if (atasks[ir].id == id) return ir; \n        }\n\n        return 0;\n    }\n}",
  "sourcePath": "/home/admin/Projects/MyFirstContract/contracts/TaskContract.sol",
  "compiler": {
    "name": "solc",
    "version": "0.8.17+commit.8df45f5f.Emscripten.clang"
  },
  "schemaVersion": "3.4.1",
  "updatedAt": "2023-01-13T10:46:24.713Z",
  "devdoc": {
    "kind": "dev",
    "methods": {},
    "version": 1
  },
  "userdoc": {
    "kind": "user",
    "methods": {},
    "version": 1
  }
}