{
  "contractName": "TaskContract",
  "abi": [
    {
      "inputs": [],
      "stateMutability": "nonpayable",
      "type": "constructor"
    },
    {
      "inputs": [
        {
          "internalType": "uint256",
          "name": "",
          "type": "uint256"
        }
      ],
      "name": "tasks",
      "outputs": [
        {
          "internalType": "uint256",
          "name": "id",
          "type": "uint256"
        },
        {
          "internalType": "string",
          "name": "name",
          "type": "string"
        },
        {
          "internalType": "string",
          "name": "description",
          "type": "string"
        },
        {
          "internalType": "uint8",
          "name": "status",
          "type": "uint8"
        },
        {
          "internalType": "uint256",
          "name": "createAt",
          "type": "uint256"
        }
      ],
      "stateMutability": "view",
      "type": "function",
      "constant": true
    },
    {
      "inputs": [],
      "name": "hello",
      "outputs": [
        {
          "internalType": "string",
          "name": "",
          "type": "string"
        }
      ],
      "stateMutability": "pure",
      "type": "function",
      "constant": true
    },
    {
      "inputs": [],
      "name": "getLength",
      "outputs": [
        {
          "internalType": "uint256",
          "name": "",
          "type": "uint256"
        }
      ],
      "stateMutability": "view",
      "type": "function",
      "constant": true
    },
    {
      "inputs": [
        {
          "internalType": "string",
          "name": "name",
          "type": "string"
        },
        {
          "internalType": "string",
          "name": "description",
          "type": "string"
        }
      ],
      "name": "create",
      "outputs": [],
      "stateMutability": "nonpayable",
      "type": "function"
    },
    {
      "inputs": [
        {
          "internalType": "uint256",
          "name": "id",
          "type": "uint256"
        }
      ],
      "name": "getTask",
      "outputs": [
        {
          "internalType": "string",
          "name": "name",
          "type": "string"
        },
        {
          "internalType": "string",
          "name": "description",
          "type": "string"
        }
      ],
      "stateMutability": "view",
      "type": "function",
      "constant": true
    },
    {
      "inputs": [
        {
          "internalType": "uint256",
          "name": "id",
          "type": "uint256"
        }
      ],
      "name": "getaTask",
      "outputs": [
        {
          "internalType": "string",
          "name": "name",
          "type": "string"
        },
        {
          "internalType": "string",
          "name": "description",
          "type": "string"
        }
      ],
      "stateMutability": "view",
      "type": "function",
      "constant": true
    },
    {
      "inputs": [
        {
          "internalType": "uint256",
          "name": "id",
          "type": "uint256"
        }
      ],
      "name": "getName",
      "outputs": [
        {
          "internalType": "string",
          "name": "",
          "type": "string"
        }
      ],
      "stateMutability": "view",
      "type": "function",
      "constant": true
    }
  ],
  "bytecode": "0x60806040523480156200001157600080fd5b50620000226200002860201b60201c565b62000607565b620000a46040518060400160405280600281526020017f54310000000000000000000000000000000000000000000000000000000000008152506040518060400160405280600781526020017f5461726561203100000000000000000000000000000000000000000000000000815250620000a660201b60201c565b565b6000806000815480929190620000bc9062000263565b91905055905060026040518060a00160405280838152602001858152602001848152602001600060ff16815260200142815250908060018154018082558091505060019003906000526020600020906005020160009091909190915060008201518160000155602082015181600101908162000139919062000520565b50604082015181600201908162000151919062000520565b5060608201518160030160006101000a81548160ff021916908360ff1602179055506080820151816004015550506040518060a00160405280828152602001848152602001838152602001600060ff1681526020014281525060016000838152602001908152602001600020600082015181600001556020820151816001019081620001de919062000520565b506040820151816002019081620001f6919062000520565b5060608201518160030160006101000a81548160ff021916908360ff16021790555060808201518160040155905050505050565b7f4e487b7100000000000000000000000000000000000000000000000000000000600052601160045260246000fd5b6000819050919050565b6000620002708262000259565b91507fffffffffffffffffffffffffffffffffffffffffffffffffffffffffffffffff8203620002a557620002a46200022a565b5b600182019050919050565b600081519050919050565b7f4e487b7100000000000000000000000000000000000000000000000000000000600052604160045260246000fd5b7f4e487b7100000000000000000000000000000000000000000000000000000000600052602260045260246000fd5b600060028204905060018216806200033257607f821691505b602082108103620003485762000347620002ea565b5b50919050565b60008190508160005260206000209050919050565b60006020601f8301049050919050565b600082821b905092915050565b600060088302620003b27fffffffffffffffffffffffffffffffffffffffffffffffffffffffffffffffff8262000373565b620003be868362000373565b95508019841693508086168417925050509392505050565b6000819050919050565b600062000401620003fb620003f58462000259565b620003d6565b62000259565b9050919050565b6000819050919050565b6200041d83620003e0565b620004356200042c8262000408565b84845462000380565b825550505050565b600090565b6200044c6200043d565b6200045981848462000412565b505050565b5b8181101562000481576200047560008262000442565b6001810190506200045f565b5050565b601f821115620004d0576200049a816200034e565b620004a58462000363565b81016020851015620004b5578190505b620004cd620004c48562000363565b8301826200045e565b50505b505050565b600082821c905092915050565b6000620004f560001984600802620004d5565b1980831691505092915050565b6000620005108383620004e2565b9150826002028217905092915050565b6200052b82620002b0565b67ffffffffffffffff811115620005475762000546620002bb565b5b62000553825462000319565b6200056082828562000485565b600060209050601f83116001811462000598576000841562000583578287015190505b6200058f858262000502565b865550620005ff565b601f198416620005a8866200034e565b60005b82811015620005d257848901518255600182019150602085019450602081019050620005ab565b86831015620005f25784890151620005ee601f891682620004e2565b8355505b6001600288020188555050505b505050505050565b61129880620006176000396000f3fe608060405234801561001057600080fd5b506004361061007d5760003560e01c80636b8ff5741161005b5780636b8ff574146100ed5780638d9776721461011d578063a622e69314610151578063be1c766b146101825761007d565b8063198e2b8a1461008257806319ff1d211461009e5780631d65e77e146100bc575b600080fd5b61009c60048036038101906100979190610c50565b6101a0565b005b6100a661031a565b6040516100b39190610d47565b60405180910390f35b6100d660048036038101906100d19190610d9f565b610357565b6040516100e4929190610dcc565b60405180910390f35b61010760048036038101906101029190610d9f565b6104a7565b6040516101149190610d47565b60405180910390f35b61013760048036038101906101329190610d9f565b61062d565b604051610148959493929190610e2e565b60405180910390f35b61016b60048036038101906101669190610d9f565b610780565b604051610179929190610dcc565b60405180910390f35b61018a610ae9565b6040516101979190610e8f565b60405180910390f35b60008060008154809291906101b490610ed9565b91905055905060026040518060a00160405280838152602001858152602001848152602001600060ff16815260200142815250908060018154018082558091505060019003906000526020600020906005020160009091909190915060008201518160000155602082015181600101908161022f919061112d565b506040820151816002019081610245919061112d565b5060608201518160030160006101000a81548160ff021916908360ff1602179055506080820151816004015550506040518060a00160405280828152602001848152602001838152602001600060ff16815260200142815250600160008381526020019081526020016000206000820151816000015560208201518160010190816102d0919061112d565b5060408201518160020190816102e6919061112d565b5060608201518160030160006101000a81548160ff021916908360ff16021790555060808201518160040155905050505050565b60606040518060400160405280600c81526020017f486f6c61206d756e646f20320000000000000000000000000000000000000000815250905090565b606080600160008481526020019081526020016000206001016001600085815260200190815260200160002060020181805461039290610f50565b80601f01602080910402602001604051908101604052809291908181526020018280546103be90610f50565b801561040b5780601f106103e05761010080835404028352916020019161040b565b820191906000526020600020905b8154815290600101906020018083116103ee57829003601f168201915b5050505050915080805461041e90610f50565b80601f016020809104026020016040519081016040528092919081815260200182805461044a90610f50565b80156104975780601f1061046c57610100808354040283529160200191610497565b820191906000526020600020905b81548152906001019060200180831161047a57829003601f168201915b5050505050905091509150915091565b60606000600160008481526020019081526020016000206040518060a0016040529081600082015481526020016001820180546104e390610f50565b80601f016020809104026020016040519081016040528092919081815260200182805461050f90610f50565b801561055c5780601f106105315761010080835404028352916020019161055c565b820191906000526020600020905b81548152906001019060200180831161053f57829003601f168201915b5050505050815260200160028201805461057590610f50565b80601f01602080910402602001604051908101604052809291908181526020018280546105a190610f50565b80156105ee5780601f106105c3576101008083540402835291602001916105ee565b820191906000526020600020905b8154815290600101906020018083116105d157829003601f168201915b505050505081526020016003820160009054906101000a900460ff1660ff1660ff16815260200160048201548152505090508060200151915050919050565b600160205280600052604060002060009150905080600001549080600101805461065690610f50565b80601f016020809104026020016040519081016040528092919081815260200182805461068290610f50565b80156106cf5780601f106106a4576101008083540402835291602001916106cf565b820191906000526020600020905b8154815290600101906020018083116106b257829003601f168201915b5050505050908060020180546106e490610f50565b80601f016020809104026020016040519081016040528092919081815260200182805461071090610f50565b801561075d5780601f106107325761010080835404028352916020019161075d565b820191906000526020600020905b81548152906001019060200180831161074057829003601f168201915b5050505050908060030160009054906101000a900460ff16908060040154905085565b6060806000600280549050905060005b81811015610abd5780850361090c57600281815481106107b3576107b26111ff565b5b9060005260206000209060050201600101600282815481106107d8576107d76111ff565b5b90600052602060002090600502016002018180546107f590610f50565b80601f016020809104026020016040519081016040528092919081815260200182805461082190610f50565b801561086e5780601f106108435761010080835404028352916020019161086e565b820191906000526020600020905b81548152906001019060200180831161085157829003601f168201915b5050505050915080805461088190610f50565b80601f01602080910402602001604051908101604052809291908181526020018280546108ad90610f50565b80156108fa5780601f106108cf576101008083540402835291602001916108fa565b820191906000526020600020905b8154815290600101906020018083116108dd57829003601f168201915b50505050509050935093505050610ae4565b806001828461091b919061122e565b610925919061122e565b1115610abd578082610937919061122e565b8503610aaa5760028181548110610951576109506111ff565b5b906000526020600020906005020160010160028281548110610976576109756111ff565b5b906000526020600020906005020160020181805461099390610f50565b80601f01602080910402602001604051908101604052809291908181526020018280546109bf90610f50565b8015610a0c5780601f106109e157610100808354040283529160200191610a0c565b820191906000526020600020905b8154815290600101906020018083116109ef57829003601f168201915b50505050509150808054610a1f90610f50565b80601f0160208091040260200160405190810160405280929190818152602001828054610a4b90610f50565b8015610a985780601f10610a6d57610100808354040283529160200191610a98565b820191906000526020600020905b815481529060010190602001808311610a7b57829003601f168201915b50505050509050935093505050610ae4565b8080610ab590610ed9565b915050610790565b50604051806020016040528060008152506040518060200160405280600081525092509250505b915091565b6000600280549050905090565b6000604051905090565b600080fd5b600080fd5b600080fd5b600080fd5b6000601f19601f8301169050919050565b7f4e487b7100000000000000000000000000000000000000000000000000000000600052604160045260246000fd5b610b5d82610b14565b810181811067ffffffffffffffff82111715610b7c57610b7b610b25565b5b80604052505050565b6000610b8f610af6565b9050610b9b8282610b54565b919050565b600067ffffffffffffffff821115610bbb57610bba610b25565b5b610bc482610b14565b9050602081019050919050565b82818337600083830152505050565b6000610bf3610bee84610ba0565b610b85565b905082815260208101848484011115610c0f57610c0e610b0f565b5b610c1a848285610bd1565b509392505050565b600082601f830112610c3757610c36610b0a565b5b8135610c47848260208601610be0565b91505092915050565b60008060408385031215610c6757610c66610b00565b5b600083013567ffffffffffffffff811115610c8557610c84610b05565b5b610c9185828601610c22565b925050602083013567ffffffffffffffff811115610cb257610cb1610b05565b5b610cbe85828601610c22565b9150509250929050565b600081519050919050565b600082825260208201905092915050565b60005b83811015610d02578082015181840152602081019050610ce7565b60008484015250505050565b6000610d1982610cc8565b610d238185610cd3565b9350610d33818560208601610ce4565b610d3c81610b14565b840191505092915050565b60006020820190508181036000830152610d618184610d0e565b905092915050565b6000819050919050565b610d7c81610d69565b8114610d8757600080fd5b50565b600081359050610d9981610d73565b92915050565b600060208284031215610db557610db4610b00565b5b6000610dc384828501610d8a565b91505092915050565b60006040820190508181036000830152610de68185610d0e565b90508181036020830152610dfa8184610d0e565b90509392505050565b610e0c81610d69565b82525050565b600060ff82169050919050565b610e2881610e12565b82525050565b600060a082019050610e436000830188610e03565b8181036020830152610e558187610d0e565b90508181036040830152610e698186610d0e565b9050610e786060830185610e1f565b610e856080830184610e03565b9695505050505050565b6000602082019050610ea46000830184610e03565b92915050565b7f4e487b7100000000000000000000000000000000000000000000000000000000600052601160045260246000fd5b6000610ee482610d69565b91507fffffffffffffffffffffffffffffffffffffffffffffffffffffffffffffffff8203610f1657610f15610eaa565b5b600182019050919050565b7f4e487b7100000000000000000000000000000000000000000000000000000000600052602260045260246000fd5b60006002820490506001821680610f6857607f821691505b602082108103610f7b57610f7a610f21565b5b50919050565b60008190508160005260206000209050919050565b60006020601f8301049050919050565b600082821b905092915050565b600060088302610fe37fffffffffffffffffffffffffffffffffffffffffffffffffffffffffffffffff82610fa6565b610fed8683610fa6565b95508019841693508086168417925050509392505050565b6000819050919050565b600061102a61102561102084610d69565b611005565b610d69565b9050919050565b6000819050919050565b6110448361100f565b61105861105082611031565b848454610fb3565b825550505050565b600090565b61106d611060565b61107881848461103b565b505050565b5b8181101561109c57611091600082611065565b60018101905061107e565b5050565b601f8211156110e1576110b281610f81565b6110bb84610f96565b810160208510156110ca578190505b6110de6110d685610f96565b83018261107d565b50505b505050565b600082821c905092915050565b6000611104600019846008026110e6565b1980831691505092915050565b600061111d83836110f3565b9150826002028217905092915050565b61113682610cc8565b67ffffffffffffffff81111561114f5761114e610b25565b5b6111598254610f50565b6111648282856110a0565b600060209050601f8311600181146111975760008415611185578287015190505b61118f8582611111565b8655506111f7565b601f1984166111a586610f81565b60005b828110156111cd578489015182556001820191506020850194506020810190506111a8565b868310156111ea57848901516111e6601f8916826110f3565b8355505b6001600288020188555050505b505050505050565b7f4e487b7100000000000000000000000000000000000000000000000000000000600052603260045260246000fd5b600061123982610d69565b915061124483610d69565b925082820390508181111561125c5761125b610eaa565b5b9291505056fea26469706673582212204b3db28f3e091313b2d41d2491b904691f0df4ac736d16a2f10de5d9707d230e64736f6c63430008110033",
  "immutableReferences": {},
  "source": "// SPDX-License-Identifier: MIT\npragma solidity >=0.8.15 <0.9.0;\n\ncontract TaskContract {\n    uint256 counter;\n\n    struct Task {\n        uint256 id;\n        string name;\n        string description;\n        uint8 status; // 0 ini 1 done 2 delete\n        uint256 createAt;\n    }\n\n    mapping(uint256 => Task) public tasks;\n    Task[] atasks; \n\n    constructor(){\n        autoCreate();\n    }\n    function hello() public pure returns(string memory){\n        return \"Hola mundo 2\";\n    }\n    function autoCreate() internal {\n        create(\"T1\", \"Tarea 1\");\n    }\n\n    function getLength() public view returns(uint256){\n        return atasks.length;\n    }\n    function create(string memory name, string memory description) public {\n        uint id = counter++;\n        atasks.push(Task(id, name, description, 0, block.timestamp));\n        tasks[id] = Task(id, name, description, 0, block.timestamp);\n    }\n    function getTask(uint256 id) public view returns(string memory name, string memory description){\n        return (tasks[id].name, tasks[id].description) ; \n    }\n    function getaTask(uint256 id) public view returns(string memory name, string memory description){\n        uint len = atasks.length;\n        for (uint256 i = 0; i < len; i++) {\n            if (id == i) return (atasks[i].name, atasks[i].description);\n            if (len - i - 1 <= i) break;\n            if (id == len - i) return (atasks[i].name, atasks[i].description);\n        }\n        \n        return (\"\",\"\");\n    }\n    function getName(uint256 id)\n        public\n        view\n        returns (\n            string memory\n        )\n    {\n        Task memory tsk = tasks[id];\n        return tsk.name;\n    }\n\n}\n",
  "sourcePath": "/home/admin/Projects/MyFirstContract/contracts/TaskContract.sol",
  "compiler": {
    "name": "solc",
    "version": "0.8.17+commit.8df45f5f.Emscripten.clang"
  },
  "schemaVersion": "3.4.1",
  "updatedAt": "2023-01-10T11:01:02.129Z",
  "networkType": "ethereum",
  "devdoc": {
    "kind": "dev",
    "methods": {},
    "version": 1
  },
  "userdoc": {
    "kind": "user",
    "methods": {},
    "version": 1
  }
}